:020000040800F2
:10000000483F002049010008A1270008F318000814
:1000100033270008B90F0008E5450008000000007C
:100020000000000000000000000000008D33000808
:100030007910000800000000192E0008453800085B
:100040006301000863010008630100086301000800
:1000500063010008630100086301000863010008F0
:1000600063010008630100086301000863010008E0
:1000700063010008630100086301000863010008D0
:1000800063010008630100086301000863010008C0
:1000900063010008630100086301000863010008B0
:1000A00063010008630100086301000863010008A0
:1000B0006301000863010008B13A00086301000809
:1000C0006301000863010008630100086301000880
:1000D000630100085D410008E54100084142000855
:1000E0006301000863010008630100086301000860
:1000F0006301000863010008630100086301000850
:10010000630100086301000863010008630100083F
:10011000630100086301000863010008630100082F
:10012000630100086301000863010008630100081F
:10013000DFF810D000F0F4FD004800476D560008CD
:10014000AFF30080483F002006488047064800473C
:10015000FEE7FEE7FEE7FEE7FEE7FEE7FEE7FEE777
:10016000FEE7FEE77938000831010008A0F14101FF
:10017000192900D82030704740EA01039B0703D0BB
:1001800009E008C9121F08C0042AFAD203E011F8D6
:10019000013B00F8013B521EF9D27047D2B201E098
:1001A00000F8012B491EFBD270470022F6E710B57C
:1001B00013460A4604461946FFF7F0FF204610BDD5
:1001C000421E12F8013F002BFBD111F8013B02F84F
:1001D000013B002BF9D1704730B505462A460B4646
:1001E00012F8010B13F8014B08B1A042F8D01CB172
:1001F000002802D06D1CF1E7284630BDCAB2401E6F
:1002000010F8011F8A4202D00029F9D1002070475E
:10021000421C10F8011B0029FBD1801A704710B551
:10022000002200E0521C835C8C5CA34201D1002BB5
:10023000F8D1D8B2E1B2401A10BD10B5044600E0C2
:10024000401C0378002BFBD100E0401C521E04D35D
:1002500011F8013B0370002BF7D1002101702046FB
:1002600010BD30B505460020034600E05B1C9342FC
:1002700005D2EC5CC85C201A01D1002CF6D130BD4F
:100280002DE9FF4F087883B09946FF2805D0491C17
:100290002D2804D00024002008E000200BE00124D9
:1002A000F9E700EB800003EB4000491C0B78FF2BC3
:1002B000F7D104B1404200230293147819461D4639
:1002C0002D2C01D02B2C04D1521C2D2C13D000240A
:1002D0000294AA461478FF2C0FD00A25A3FB0578B8
:1002E00001FB05814FF0000C03FB0C11521CE319BC
:1002F0004AEB0101EEE70124EAE7814453EA0100F9
:1003000002D019F5C87F06DA03980021C0E9001170
:1003100007B0BDE8F08F0025AE4E2F46DFF8B8825B
:10032000184600F0BDFCCDE90001B9F1000002DA89
:10033000C9F1000400E004460023A74A1AEB030BAE
:1003400042EB045A12E0E00707D02A46334638460B
:10035000414600F0F9F9074688462A4633461046DA
:10036000194600F0F1F905460E466410002CEAD15A
:10037000DDE90001B9F1000F5A46534606DA00F0F4
:1003800020FC3A46434600F01CFC05E000F0DCF996
:100390003A46434600F0D8F9029A0AB181F000418A
:1003A000039AC2E90001B3E72DE9FF4F1F468DB064
:1003B000D7E901464FF0FF382E2045464FF000099F
:1003C0000B90B9696D1C0E988847396A8246884738
:1003D0000028F6D1BAF1FF3F0AD024F4D064002EF1
:1003E00011DDBAF12B0F08D0BAF12D0F0BD102E0BD
:1003F000404611B08DE744F48064B9696D1C0E98D5
:1004000088478246761E6946600501D52D2000E0AA
:100410002B208DF8000001F1010B0DF1200809E0FF
:10042000B9696D1C0E98884782460F9844F4007491
:10043000761E0560002E02DDBAF1300FF0D00B9968
:100440008A453ED144F0800406E00F99681CA9F16A
:10045000010944F400740860B9696D1C761E0E9899
:10046000884782463028F0D02BE00B998A4505D189
:10047000200603D444F08004761E18E0504604F0B1
:100480000BFB08B30DF11301761E44F400748B4589
:1004900008D2AAF130000BF8010B200607D5A9F10C
:1004A000010003E0200602D409F101008146A00505
:1004B00002D50F99681C0860B9696D1C0E988847B1
:1004C0008246002ED1DC53E0002E51DDBAF1650FDB
:1004D00002D0BAF1450F4BD1A00549D5B9696D1CC1
:1004E00024F44074761E0E9888478246002E0CDD58
:1004F0002B2804D0BAF12D0F07D144F48074B969C8
:100500006D1C0E9888478246761EE00501D52D2188
:1005100000E02B2108F8011BCDF82C8021E00DF123
:100520002901761E44F4007488450CD2AAF13000EB
:1005300010F0FF0088F8000002D10B99884509D916
:1005400008F1010806E0E00501D5244801E042F287
:100550000F708146B9696D1C0E98884782460F98C6
:100560000560002E04DD504604F096FA0028D6D12E
:10057000F9690E988847FF208BF8000088F8000082
:100580000020069007904B466A4608A906A8FFF788
:1005900077FEA00502D46FF001002AE714F0240FC3
:1005A0000AD0E00714D1DDE906123868031D3B606C
:1005B0000068C0E900120BE0DDE9060100F094FBE1
:1005C0000146E00704D13868021D3A600068016006
:1005D00028460EE7000014400000F03FF1D8FFFF6E
:1005E00070B5064604F02CF9046805460A2200217D
:1005F000304600F051FA2C6070BD2DE9FE4F804668
:1006000081EA0300C00F0C46009021F0004123F066
:100610000045B8EB0200A94105D24046214690466C
:100620001C460B46024623F00040104347D0270DDE
:10063000C7F30A00C3F30A510290401A0190402800
:100640006BDAC3F3130040F4801B0098924620B18C
:100650000023D2EB030A63EB0B0B01985946C0F160
:100660004002504600F079F906460D46504659467C
:10067000019A00F091F910EB08006141002487EA2B
:10068000115284EAE7731A4340D0009A62B3019A88
:10069000012A4FEA075215DC001B61EB02014FF003
:1006A000004202EA0752CDE90042001C41F58011E8
:1006B00032462B4600F037FA03B0BDE8F08F4046D3
:1006C0002146F9E7001B61EB0201001C41F5801394
:1006D00000185B412018A2F5001747EB030140EA20
:1006E000D570B6196D4111E06D084FEA360645EA3E
:1006F000C0754FEA0752001B61EB0201001C41F577
:10070000801149084FEA30000019514132462B460A
:1007100003B0BDE8F04F00F0F7B9009801224000A7
:100720000023D0EB020263EBE073009821464FEA0E
:10073000E074B8EB000061EB0401E9E783F00043EB
:100740005BE781F0004158E72DE9FE4F81EA0304A1
:1007500004F0004421F0004100944FF0000B23F01E
:10076000004350EA01045ED052EA03045BD0C3F3B5
:100770000A54C1F30A552C44A4F2F3340194A0FBAB
:100780000254C1F3130141F48011C3F3130343F482
:10079000801301FB024400FB034E840A970A44EADB
:1007A000815447EA8357A4FB076802958D0A05FB2D
:1007B00007854FEA932C04FB0C542705029D4FEA52
:1007C000065847EA1637B5EB08056EEB070C870E9F
:1007D000920E47EA811742EA8312A7FB0201B6EBA9
:1007E0000B0164EB00042B0D43EA0C335E1844EB61
:1007F0001C50DA465146E7FB0201C5F313044FEAE9
:100800000B3343EA14534FEA0432019C43EA0603D4
:10081000A4F10C040294009CCDE900B400F083F92B
:1008200003B0BDE8F08F00200146F9E770B5C1F3D1
:100830000A5201F000450024C1F3130140F2FF33D6
:1008400041F480119A4201DA002070BD40F2334336
:100850009A42A2F2334203DC524200F08DF800E0EB
:1008600090402C43F1D0404270BD000030B5041ED2
:1008700071F1000404DB4FF00044404264EB0101DD
:10088000141E73F1000405DB1C464FF00043524276
:1008900063EB04038B4208BF824230BD30B5041EB7
:1008A00071F1000404DB4FF00044404264EB0101AD
:1008B000141E73F1000405DB1C464FF00043524246
:1008C00063EB0403994208BF904230BD30B50B463C
:1008D000014600202022012409E021FA02F59D4270
:1008E00005D303FA02F5491B04FA02F52844151E44
:1008F000A2F10102F1DC30BD2DE9F05F05460020D8
:1009000092469B4688460646814640241BE0284680
:1009100041464746224600F02FF853465A46C01A31
:10092000914110D311461846224600F016F82D1AB0
:1009300067EB01084F4622460120002100F00DF828
:1009400017EB00094E41201EA4F10104DFDC4846EC
:1009500031462A464346BDE8F09F202A04DB203A70
:1009600000FA02F1002070479140C2F1200320FA02
:1009700003F3194390407047202A04DB203A21FA00
:1009800002F00021704721FA02F3D040C2F12002A8
:100990009140084319467047202A06DBCB17203ABE
:1009A00041FA02F043EAE07306E041FA02F3D04074
:1009B000C2F120029140084319467047426842B193
:1009C000016811F8013B23B1521EC0E9001218461C
:1009D00070470121C160881E704742685AB1C368E0
:1009E000016843B983688B4205D0491E521CC0E997
:1009F0000012002070474FF0FF3070470FB4002303
:100A000000B589B00CA900910B996FF00042CB6042
:100A10001E4B06931E4B07930423CDE901321D4A5A
:100A2000089202466B460020FFF7BEFC09B05DF855
:100A300014FB70B586B006464FF0FF300091CDE94B
:100A40000101002015460C4604903246694604A870
:100A5000FFF7D4FF02460498211825B108B10846D3
:100A600000E020462860049800280DD0002A02DD0E
:100A70000098884208D0081B0094CDE90104324652
:100A8000694604A8FFF7BAFF06B070BDBD090008AB
:100A9000DB0900084D0D00082DE9F04791460F468F
:100AA00080460446002614F8015B2DB100F04AF997
:100AB0000068405DC007F6D12B2D02D02D2D18D037
:100AC000641E4A463946204600F049F927B1396884
:100AD000A14201D1C7F8008071054FF002040BD587
:100AE0004042002803DD03F0ABFE0460A007BDE830
:100AF000F08746F48066E4E70028F8DA03F0A0FE09
:100B000004606FF00040F2E710B5141E73F10004AA
:100B100008DA401C41F1000192185B411A4301D1EF
:100B200020F0010010BD2DE9F04D92469B4611B119
:100B3000B1FA81F202E0B0FA80F220329046FFF77B
:100B40000CFF04460F4640EA0A0041EA0B015346F7
:100B50005A46084313D0114653EA010019D0C8F190
:100B600040025046FFF708FF05460E4650465946DC
:100B70004246FFF7F2FE084305D0012004E020467C
:100B80003946BDE8F08D0020054346EAE0762C4367
:100B900037430A986305E40AA0EB08000022FD0A27
:100BA00044EA47540A3002D500200146E9E701052E
:100BB00010196941DDE9084500196941BDE8F04DAA
:100BC000A2E72DE9F04D81EA030404F0004B21F087
:100BD000004514464FF0000A23F0004150EA050298
:100BE00020D054EA01021DD0C5F30A570246C5F3CE
:100BF0001303C1F31300C1F30A5640F4801543F404
:100C00008013A7EB0608101BD64608F2FD3873EBDD
:100C1000050002D308F1010801E092185B41B8F128
:100C2000000F03DA00200146BDE8F08D00204FF4EC
:100C30008011064684460EE0171B73EB050705D3AB
:100C4000121B63EB050306434CEA010C49084FEA0B
:100C5000300092185B4150EA0107EDD152EA0300DF
:100C600012D082EA040083EA0501084305D0101B74
:100C7000AB4106D20122002306E000224FF00043E0
:100C800002E06FF0010253101AEB06004CEB085122
:100C900010EB0A0041EB0B01BDE8F04DFFF734BF4C
:100CA0000EB540F2334202920022CDE900221346F3
:100CB000FFF739FF03B000BDC1F30A52C1F31301BE
:100CC00040F2FF3341F480119A4202DA00200146DB
:100CD000704740F233439A42A2F2334202DC52425E
:100CE000FFF74ABEFFF739BE01F0004330B421F0F0
:100CF000004150EA010206D00A0DA2F56072C1F36C
:100D00001301002A02DC30BC00207047440F44EA83
:100D1000C104C100E01830BC00EBC25000F06EB856
:100D2000064C074D06E0E06840F0010394E8070038
:100D300098471034AC42F6D3FFF7FEF93863000849
:100D400058630008004870477C62000810B50446EC
:100D5000FFF7F8FF0068005D00F0010010BD2DE90D
:100D6000F05F82460078002715468B460AF10104A1
:100D7000B946302801D09DB113E014F8010B0127CA
:100D8000782803D0582801D045B10AE00DB1102DC4
:100D900007D10027102514F8010B02E0082500E018
:100DA0000A250026B0460EE005FB080005FB06F10B
:100DB000012701EB10461FFA80F8B6F5803F00D3FB
:100DC000B94614F8010B294600F04FF80028EBDA79
:100DD000BBF1000F05D00FB1641E00E05446CBF804
:100DE0000040B9F1000F06D003F02AFD0221016096
:100DF000C81EBDE8F09F48EA0640FAE70029A8BFF0
:100E00007047401C490008BF20F00100704710B433
:100E1000B0FA80FC00FA0CF050EA010404BF10BCE8
:100E2000704749B1CCF1200421FA04F411FA0CF115
:100E300018BF012121430843A3EB0C01CB1D4FEA4E
:100E400000614FEA102042BF002010BC704700EB49
:100E5000C35010440029A4BF10BC7047401C490077
:100E600008BF20F0010010BC70473A2800D230388B
:100E700020F02002412A01D3A2F13700884201D399
:100E80004FF0FF30704770B58C1810F8015B15F00B
:100E9000070301D110F8013B2A1106D110F8012BEC
:100EA00003E010F8016B01F8016B5B1EF9D12B0711
:100EB00005D40023521E0DD401F8013BFAE710F8C7
:100EC000013BCB1A921C03E013F8015B01F8015BB4
:100ED000521EF9D5A142D8D3002070BD10B52B48C1
:100EE000407B002804DD2948407B401E2749487389
:100EF0002648C07A012847D1642000F04BF82448E6
:100F0000407C98B921480089401C2049088140F65E
:100F1000116088800120C88002208872012002F0C0
:100F200087FA04F049F904F0EDFA2DE01848407C06
:100F3000012812D115480089401C1449088140F647
:100F4000116088800220C8808872012002F070FA47
:100F500004F05DF904F0D6FA16E00D48407C022852
:100F600012D104F086F909480089401C074908811C
:100F700040F6116088800320C8800220887201201A
:100F800002F056FA04F0BEFA10BD0000342F002023
:100F9000202F002010B50446012005490860204696
:100FA00004F0DCFA00200349C1F8940110BD0000F0
:100FB000948121420080214200BFFEE710B501204C
:100FC00000F0E4FC04463CB12848007820B92848E9
:100FD000047001202549087064B124480078012874
:100FE00008DB224800781E2804DC20480078401CDA
:100FF0001E490870E4B91D480078002818DD1B4818
:1010000000781E2814DA1A480078012804D0022833
:1010100003D0032806D101E005E004E001201549D2
:10102000C87200E000BF00BF0020104908701BE03C
:10103000D4B90E4800781E2816DB0D480078012828
:1010400004D0022805D0032809D105E004F0B4F843
:1010500006E004F0DCF803E004F00BF900E000BF68
:1010600000BF00200149087010BD00009C0A00204C
:101070009D0A0020342F00207047000030B58BB04F
:1010800000200790089009900A900125354B364AB8
:1010900036A13CA003F0B0FB07A800210291039108
:1010A000CDE9041000912B022E4A01912E492FA068
:1010B00000F01AFE002843D1089A91B2079800F078
:1010C0003BFAFA2000F000F90446002C2FD020460D
:1010D00001F0D2FA02282AD1204601F09EF9062812
:1010E00020D2DFE800F0030B0F13171B2DA003F035
:1010F00083FB002500203049C87017E02FA003F0C3
:101100007BFB13E034A003F077FB0FE03BA003F080
:1011100073FB0BE041A003F06FFB07E048A003F076
:101120006BFB03E051A003F067FB00BF00BF224848
:10113000C078401C2049C87007A800F0BFFC07E039
:101140001D48C078401C1C49C8704FA003F054FBD8
:101150001948C078022801DD02F076FB28460BB062
:1011600030BD0000E4620008A0620008736D617287
:1011700074646576696365266839736A45477231B8
:101180006F6D380050524F49443A2025730941553C
:1011900049463A2025730944455649443A25730D7A
:1011A0000A000000546970733A09C1ACBDD3B3C9D9
:1011B000B9A60D0A00000000202F00205741524E12
:1011C0003A09C1ACBDD3CAA7B0DCA3BAD0ADD2E94D
:1011D000B4EDCEF30D0A00005741524E3A09C1ACAE
:1011E000BDD3CAA7B0DCA3BAB7C7B7A8B5C4636CF0
:1011F00069656E7469640D0A000000005741524E23
:101200003A09C1ACBDD3CAA7B0DCA3BAB7FECEF1D0
:10121000C6F7CAA7B0DC0D0A000000005741524EC5
:101220003A09C1ACBDD3CAA7B0DCA3BAD3C3BBA72C
:10123000C3FBBBF2C3DCC2EBB4EDCEF30D0A00007E
:101240005741524E3A09C1ACBDD3CAA7B0DCA3BACC
:10125000B7C7B7A8C1B4BDD328B1C8C8E7746F6B0E
:10126000656EB7C7B7A8290D0A0000004552523A6B
:1012700009C1ACBDD3CAA7B0DCA3BACEB4D6AAB458
:10128000EDCEF30D0A0000005741524E3A094D5180
:1012900054545F5061636B6574436F6E6E65637425
:1012A000204661696C65640D0A00000010B54FF4BA
:1012B00080710348FEF779FF00200249088010BDC5
:1012C00020260020760A002070B50546002400BFC5
:1012D00000F054F980B90DA10E48FEF77DFF0446D9
:1012E00054B13A212046FEF789FF044614B1641C2C
:1012F000204670BD0020FCE7052004F02FF9281ED1
:10130000A5F101018DB2E3D100BFF2E74950442CB1
:10131000000000002026002000B5A1B0FA2004F053
:101320001DF9FFF7C3FF32A003F066FA03E04FF4A4
:10133000967004F013F9C8222FA130A000F0D4F861
:101340000028F4D12FA003F057FA03E04FF4967071
:1013500004F004F9C82228A12DA000F0C5F8002847
:10136000F4D12FA003F048FA03E04FF4967004F094
:10137000F5F8C82220A12DA000F0B6F80028F4D17D
:101380002EA003F039FA802101A8FEF70EFF2DA34D
:101390002FA230A101A803F03FFA03E04FF49670AA
:1013A00004F0DCF8C82231A101A800F09DF8002863
:1013B000F4D130A003F020FA802101A8FEF7F5FE59
:1013C00040F25B732EA23AA101A803F025FA03E0D4
:1013D0004FF4FA7004F0C2F8C8223CA101A800F052
:1013E00083F80028F4D13BA003F006FA21B000BD39
:1013F00041540D0A000000004F4B000041540D0AFB
:101400000D00000043574D4F44450D0A00000000F9
:1014100041542B43574D4F44453D310D0A000000C8
:1014200041542B4357444843500D0A0041542B4329
:1014300057444843503D312C310D0A0043574A412F
:10144000500D0A0031323334353637380000000091
:101450004E45540041542B43574A41503D22257379
:10146000222C222573220D0A00000000474F542031
:101470004950000043495053544152540D0A000052
:10148000696F742D30367A30306178646867666BC6
:1014900032346E2E6D7174742E696F746875622E9D
:1014A000616C6979756E63732E636F6D0000000067
:1014B00041542B43495053544152543D22544350BC
:1014C000222C222573222C25640D0A00434F4E4EF8
:1014D000454354004553503832363620496E6974BE
:1014E000204F4B0D0A0000002DE9F04105460E4645
:1014F00014462846FEF78CFE87B23946284603F08C
:1015000063F90FE000F03AF848B931460948FEF7B0
:1015100063FE20B1FFF7CAFE0020BDE8F0810A207B
:1015200004F01CF8201EA4F101018CB2EAD10120C4
:10153000F3E700002026002030B589B005460C46B0
:10154000FFF7B4FE224608A101A803F065F9C822FE
:1015500009A101A8FFF7C8FF18B92146284603F0E2
:1015600033F909B030BD000041542B434950534575
:101570004E443D25640D0A003E0000000A480088E4
:1015800008B901207047084800880849098888423E
:1015900003D1002004490880F4E703480088034988
:1015A00008800120EEE70000760A0020780A00207B
:1015B000044900E0521C11F8013B002BFAD15008FD
:1015C00070470000AC09002010B50446062C22D25A
:1015D000DFE804F003080D12171C0121084601F092
:1015E0001DFC18E00121022001F018FC13E001218C
:1015F000042001F013FC0EE00121082001F00EFC94
:1016000009E00121102001F009FC04E00121202063
:1016100001F004FC00BF00BF10BD70B504460D46CC
:1016200016462046FFF7D0FF32462946204600F0F6
:101630005AF8204600F001F870BD3EB50446204639
:1016400002F082FD0546062C33D2DFE804F0030BDE
:10165000131B232A4FF47A70ADF804004820ADF82C
:10166000000026E040F2E730ADF804004720ADF876
:1016700000001EE04FF47A70ADF804004820ADF889
:10168000000016E040F2E630ADF804004620ADF868
:1016900000000EE05920ADF804004F20ADF8000026
:1016A00007E040F2E730ADF804004720ADF8000055
:1016B00000BF00BF0020ADF80600ADF802008DF8B5
:1016C00008006946284602F0EDFC0121284602F098
:1016D0005DFA01221146284602F07FFB00212846D0
:1016E00002F05AFA3EBDF8B506460C4615464FF4D0
:1016F000A06001F0A3F826B1012E06D0022E0CD175
:1017000007E01C208DF8000007E01D208DF8000088
:1017100003E01E208DF8000000BF00BF8DF80140DF
:101720008DF8025001208DF80300684601F04EF854
:10173000F8BD2DE9F04102460025002600200023D7
:101740000024002791F803C00CF00F0591F803C0A6
:101750000CF0100CBCF1000F03D091F802C04CEA61
:10176000050591F800C0BCF1000F31D014680020CD
:101770002BE04FF0010C0CFA00F3B1F800C00CEABA
:1017800003069E4220D183004FF00F0C0CFA03F7A2
:10179000BC4305FA03FC4CEA040491F803C0BCF115
:1017A000280F06D14FF0010C0CFA00FCC2F814C04F
:1017B0000AE091F803C0BCF1480F05D14FF0010CCD
:1017C0000CFA00FCC2F810C0401C0828D1D31460E9
:1017D000B1F800C0BCF1FF0F34DD546800202EE0EA
:1017E00000F1080C4FF0010808FA0CF3B1F800C042
:1017F0000CEA03069E4221D183004FF00F0C0CFA35
:1018000003F7BC4305FA03FC4CEA040491F803C057
:10181000BCF1280F05D100F1080C08FA0CF8C2F849
:10182000148091F803C0BCF1480F07D100F1080CF7
:101830004FF0010808FA0CF8C2F81080401C082884
:10184000CED35460BDE8F081F0B50A4600230024F1
:101850000021002500F00046B6F1004F02D11D4ED8
:10186000F16901E01B4E7168C0F3034583B200F4D7
:101870004016B6F5401F08D121F07061154E76680C
:1018800026F07066134F7E6012E000F48016B6F505
:10189000801F06D1032606FA05F4A14341F07061CA
:1018A00006E0460D360103FA06F6B14341F07061D9
:1018B00022B1460D360103FA06F6314300F0004628
:1018C000B6F1004F02D1034EF16101E0014E7160AB
:1018D000F0BD0000000001400246002093680B406C
:1018E0000BB1012000E000207047416170470161A9
:1018F000704700BFFEE7000010B54FF4A06000F095
:101900009DFFFFF755FE1D49086003F005FE01220B
:1019100000210220FFF781FE4FF4E13002F064FE67
:10192000022201214FF4E13002F0AEFE4FF4E1302B
:1019300002F0F4FE01F0D0FF00F0A4F800F078F817
:1019400001F016FB142001F0FDFF02E0052003F07A
:1019500005FE0B490B4801F02EFB0128F6D101F0E2
:101960003BF8002000F0F3FF002000F0FEFF00F045
:10197000E9FF05A002F040FF10BD0000480A00206A
:10198000342F0020940A00206F6B0A0010B5044623
:1019900014B10120244908702348007860B34FF443
:1019A00080512248FFF798FF58B14FF400511F486B
:1019B000FFF792FF28B14FF480411C48FFF78CFFDE
:1019C000D0B90020184908704FF480511748FFF72C
:1019D00083FF08B9012010BD4FF400511348FFF7F1
:1019E0007BFF08B90220F6E74FF480410F48FFF76C
:1019F00073FFB0B90320EEE74FF480510B48FFF7B7
:101A00006BFF01280DD141030848FFF765FF01284E
:101A100007D181030548FFF75FFF012801D1024983
:101A200008700020D7E7000018000020000C0140DB
:101A300008B50121082001F011FA4FF48050ADF8EB
:101A4000000048208DF8030069460D48FFF771FE3D
:101A50004FF40050ADF8000048208DF803006946AF
:101A60000748FFF766FE4FF48040ADF800004820BD
:101A70008DF8030069460248FFF75BFE08BD0000D1
:101A8000000C014008B50121182001F0E7F94FF4DE
:101A90000050ADF8000010208DF8030003208DF8F1
:101AA000020069460348FFF744FE0020024908602F
:101AB00008BD000000100140B401224210B50446E8
:101AC000207B012802D1206802F0BEFE00202060A9
:101AD0006060A060207310BD0246002301230DE06A
:101AE00002F07F000870D2092AB1087840F0800027
:101AF0000870491C01E0184670475B1C042BEFDDA1
:101B00004FF0FF30F8E7000010B5C0B004464FF4C6
:101B100080716846FEF749FB28A0008820804FF4BA
:101B200080716846FEF741FB2548828825A16846FA
:101B300002F072FE69462046FEF742FB4FF48071C8
:101B40006846FEF732FB1E48C28822A1684602F0B2
:101B500063FE69462046FEF733FB4FF4807168460A
:101B6000FEF723FB164802891EA1684602F054FEC8
:101B700069462046FEF724FB4FF480716846FEF765
:101B800014FB0F48827A1AA1684602F045FE6946A6
:101B90002046FEF715FB4FF480716846FEF705FB03
:101BA00017A1684602F038FE69462046FEF708FB9A
:101BB0002046FEF72DFBC0B240B010BD7B000000F8
:101BC000342F002022636974796964223A222564E3
:101BD000222C00002261726561223A222564222CA7
:101BE00000000000226964223A222564222C0000B1
:101BF000227374617465223A222564220000000079
:101C00007D00000070B504460E460025206898B996
:101C100001202073304602F045FE20602068E0B1CC
:101C200000206060A66003E00020216848556D1C1C
:101C3000A068A842F8D810E00220207303E000203A
:101C4000216848556D1CA068A842F8D80020606043
:101C5000A068B04201D20020206070BD2DE9FF5F76
:101C600007460D4690463846FEF7D2FA86B2284619
:101C7000FEF7CEFA1FFA80FA4FF00009B01D02F00D
:101C800011FE04461CB9012004B0BDE8F09FB11D4F
:101C90002046FEF78AFA12A0016821608088A080A1
:101CA000324639462046FEF7C8FA2846FEF7B0FA13
:101CB00083460120002100915B462A46CDE90208B7
:101CC000019121460A2000F05FF910B94FF0000998
:101CD00001E04FF00109204602F0B6FD4846D3E787
:101CE00024637273702F00002DE9FF4F83B082468A
:101CF0008B469146159C0025002002900F270190ED
:101D00004846FEF785FA0FFA80F8B9F1000F03D1C3
:101D1000012007B0BDE8F08F08F10200384487B217
:101D2000109808B145F00205129878B145F0040505
:101D30001298FEF76DFAC0B202901398FEF768FA97
:101D400001460298001D0844384487B2119820B11A
:101D5000012804D0022808D104E000BF07E045F0C4
:101D60000C0504E045F0140501E00220D1E700BFB6
:101D7000149808B145F02405BAF1000F02D0BBF168
:101D8000000F01D10320C4E745F0C0055046FEF71F
:101D90003FFA06465846FEF73BFA3044001D3844E9
:101DA00087B239462046FFF72DFF206808B9042086
:101DB000AFE739462068FEF7F8F910216268501C39
:101DC000606020688154D4E90023D118781FFFF7A0
:101DD00083FE00B201900198002804DA2046FFF744
:101DE0006DFE052095E76168019808446060002158
:101DF0006268501C60602068815404216268501C35
:101E00006060206881544D216268501C60602068C9
:101E1000815451216268501C6060206881545421B3
:101E20006268501C6060206881546268501C606069
:101E30002068815404216268501C606020688154CD
:101E40006168481C6060206845540698010A626811
:101E5000501C6060206881540698C1B26268501CB2
:101E6000606020688154C8F307216268501C60607C
:101E7000206881546268501C6060206800F802800D
:101E8000D4E90012881842464946FEF7D6F9606840
:101E90004044606005F00400B8B30026139808B908
:101EA00038A013901298FEF7B3F986B2310A62682F
:101EB000501C6060206881546268501C606020681B
:101EC0008654D4E90012881832461299FEF7B5F903
:101ED0006068304460601398FEF79AF986B2310A60
:101EE0006268501C6060206881546268501C6060A9
:101EF00020688654D4E90012881832461399FEF7F8
:101F00009CF960683044606000BF05F08000C8B193
:101F10005046FEF77DF986B2310A6268501C606057
:101F2000206881546268501C606020688654D4E93F
:101F30000012881832465146FEF77FF96068304437
:101F4000606000BF05F04000C8B15846FEF760F978
:101F500086B2310A6268501C6060206881546268F1
:101F6000501C606020688654D4E9001288183246FC
:101F70005946FEF762F960683044606000BF002097
:101F8000C7E60000000000002DE9FF4F83B0834644
:101F900090469946139C002600250020029001904F
:101FA0000027BBF1000F03D1012007B0BDE8F08F7F
:101FB00000250AE00498405D232803D00498405D82
:101FC0002B2801D10220F0E76D1C0498405D002809
:101FD000F0D147F03007119808B147F0010705EB41
:101FE0000900861C109820B1012804D002280AD1CB
:101FF00005E000BF09E047F00207B61C05E047F026
:102000000407B61C01E00320CFE700BF98F80000EA
:10201000022822D14FF0000A00BF50460AF1010AFF
:1020200018F800007D28F8D1AAF1030A0AF1070088
:1020300002900298A9EB000AF01CA0EB0A012046CE
:10204000FFF7E0FD206808B90420AEE7F21CA2EB20
:102050000A012068FEF7A9F80BE0F11C2046FFF703
:10206000D1FD206808B904209FE7F11C2068FEF725
:102070009CF86168481C606020684754D4E90002FD
:1020800081183046FFF728FD01900198002804DAF6
:102090002046FFF713FD052087E761680198084493
:1020A0006060C5F307216268501C6060206881543D
:1020B0006268501C606020688554D4E9001288185A
:1020C0002A460499FEF7B9F86068284460601098C1
:1020D00060B14FEA1B216268501C60602068815427
:1020E0006268501C6060206800F802B0B8F1000F10
:1020F00019D098F8000002280BD1D4E900128818F2
:102100004146029AFEF738F8616802980844606018
:1021100009E0D4E9001288184A464146FEF72CF837
:1021200060684844606000203FE770B505460C4693
:1021300004212046FFF766FD206808B9012070BD24
:1021400040216268501C60602068815402216268EE
:10215000501C60602068815429126268501C6060C5
:10216000206881546268501C60602068855400209B
:10217000E5E770B505460C4604212046FFF742FD11
:10218000206808B9012070BD70216268501C606031
:102190002068815402216268501C6060206881546C
:1021A00029126268501C6060206881546268501C6B
:1021B0006060206885540020E5E770B505460C4650
:1021C00004212046FFF71EFD206808B9012070BDDC
:1021D00050216268501C606020688154022162684E
:1021E000501C60602068815429126268501C606035
:1021F000206881546268501C60602068855400200B
:10220000E5E770B505460C4604212046FFF7FAFCC9
:10221000206808B9012070BD62216268501C6060AE
:102220002068815402216268501C606020688154DB
:1022300029126268501C6060206881546268501CDA
:102240006060206885540020E5E72DE9FF5F804647
:10225000174699460E9C0026B246B3460025B8F1B3
:10226000000F03D1012004B0BDE8F09F0BE057F848
:10227000250008B90220F6E757F82500FDF7C8FF4A
:102280000644681CC5B24D45F1DB09EB4900801CD2
:1022900000EB060A0AF105012046FFF7B3FC2068AF
:1022A00008B90320DFE782216268501C6060206863
:1022B0008154D4E9000281185046FFF70DFC0FFA53
:1022C00080FBBBF1000F04DA2046FFF7F7FB042088
:1022D000C9E76068584460604FEA18216268501C82
:1022E0006060206881546268501C6060206800F85B
:1022F0000280002524E057F82500FDF789FF0646F7
:10230000C6F307216268501C6060206881546268CF
:10231000501C606020688654D4E90023D01857F818
:1023200025103246FDF789FF6068304460600198EF
:10233000C1B26268501C606020688154681CC5B2DC
:102340004D45D8DB00208EE7F0B504460D46264605
:10235000012300201060002114E0775C07F07F0764
:10236000106807FB03001060705C00F0800008B983
:10237000481CF0BDDB01B3F5001F02D36FF0010074
:10238000F7E7491CA942E8DB4FF0FF30F1E72DE900
:10239000F84380460C4615461E462F2108F10600DC
:1023A000FDF72CFF07460020009017B90120BDE87B
:1023B000F8837F1C6A46042108F10100FFF7C4FF7F
:1023C000252002F06FFA2060206808B90220EEE7AD
:1023D00025212068FDF7E9FE242239462068FDF713
:1023E000CBFE243700982C3830803188481C02F00E
:1023F00059FA2860286820B9206802F025FA0320DD
:10240000D5E73288511C2868FDF7CFFE328839465F
:102410002868FDF7B1FE0020C9E701464878022888
:1024200001D001207047887810B18878012801D147
:10243000C878F7E7FF20F5E72DE9FC5F81460D46F8
:1024400014461E46DDE90C8B99F8000000F00F0AD7
:10245000002001900AF008000090CAF341008BF8B8
:10246000000001AA042109F10100FFF76DFF4844B3
:10247000471C0198022802D30AF0010010B1FF2086
:10248000BDE8FC9F7878397840EA012020802088D8
:10249000801C0199884201D9FF20F1E754A1B81CA2
:1024A000FDF79AFE08B10F20EAE79BF8000020B183
:1024B00001283DD0022877D13BE0009808B1FF20E9
:1024C000DEE72188481C02F0EDF92860286808B989
:1024D000FF20D5E72288511C2868FDF766FE228878
:1024E000B91C2868FDF748FE0198801E2188401A13
:1024F000A8F80000B8F80010481C02F0D3F93060CA
:10250000306820B9286802F09FF9FF20B8E7B8F8D2
:102510000020511C3068FDF748FEB8F80020B4F8E0
:1025200000C0BB1C0CEB03013068FDF725FE4FE03B
:1025300000BF2088801C0199884201D9FF209FE7B5
:102540002088C01C395C2088801C385C41EA00214E
:102550000E9801800E9808B9FF2091E72188481C49
:1025600002F0A0F92860286808B9FF2088E72288CF
:10257000511C2868FDF719FE2288B91C2868FDF750
:10258000FBFD0198001F2188401AA8F80000B8F848
:102590000010481C02F086F93060306828B92868BD
:1025A00002F052F9FF206BE710E0B8F80020511C50
:1025B0003068FDF7FAFDB8F80020B4F800C03B1D04
:1025C0000CEB03013068FDF7D7FD01E0FF2057E772
:1025D00000BF2B212846FDF711FE20B923212846F4
:1025E000FDF70CFE08B1FF204AE7002048E7000095
:1025F000246372657100000001464878022801D00A
:1026000001207047887820B9C8780A2801D10020B5
:10261000F7E70120F5E701464878022801D00120BC
:102620007047887820B9C8780A2801D10020F7E7D8
:102630000120F5E701464878022801D001207047C3
:10264000887820B9C8780A2801D10020F7E701204E
:10265000F5E702465078022801D0012070479078B3
:10266000B0EB112F05D1D078CBB2984201D1002028
:10267000F4E70120F2E70000F8B50446FF272078D0
:102680000511012D01DB0E2D01DD3846F8BD032DAE
:1026900024D1002000906A460421601CFFF754FEFC
:1026A0002044461C0098022803D3207800F0010043
:1026B00008B1FF20EAE77078317840EA0120801CF9
:1026C0000099884201D9FF20E0E706A1B01CFDF780
:1026D00083FD08B10F2700E0032700E02F463846AE
:1026E000D4E7000024637265710000000146FF20FA
:1026F0008A78A2B9CA78142A11D10A7932B1012A8A
:1027000005D0022A04D0802A06D103E000BF00BF12
:10271000002003E0012001E0022000BF00BF70475D
:10272000014601208A781AB9CA781E2A00D10020F1
:10273000704700BFFEE7000010B5A0B0044680213E
:102740006846FDF732FD11A0008820808021684690
:10275000FDF72BFD01220EA1684602F05DF86946E7
:102760002046FDF72DFD80216846FDF71EFD0BA1DB
:10277000684602F051F869462046FDF721FD2046E3
:10278000FDF746FDC0B220B010BD00007B00000088
:102790002274696D65223A22256422007D000000C2
:1027A000704738B505460C464FF4A06000F046F877
:1027B00026208DF800008DF801508DF80240012090
:1027C0008DF80300684600F001F838BD70B50021AF
:1027D00000230F22C47804B3154C246804F4E06489
:1027E000C4F5E064210AC1F10403CA40447804FA44
:1027F00003F184781440214309010E4C0678A15559
:10280000047804F01F050124AC4005786D11AD007B
:1028100005F1E025C5F8004109E0047804F01F0542
:102820000124AC40044D0678761145F8264070BD71
:102830000CED00E000E400E080E100E0024901432B
:10284000024A1160704700000000FA050CED00E03C
:1028500000B58DB000F076F821A1684601F0DCFFEC
:102860006A460021084600F043F921A221A16846EA
:1028700001F0D2FF6A460221002000F039F922A2BD
:1028800024A1684601F0C8FF6A460421002000F038
:102890002FF925A1684601F0BFFF6A4606210020F6
:1028A00000F026F9FEF738FD03E04FF4967002F0D1
:1028B00055FEFEF7E3FB0028F7D103E04FF49670D6
:1028C00002F04CFE01211D4800F032FF0028F5D136
:1028D0003C201B49087000F035F80DB000BD000029
:1028E0002DC7EBB4F2BFAA57494649C8C8B5E300A3
:1028F0004E4554002DC3FBB3C63A2573202020203B
:102900002020202020000000313233343536373883
:10291000000000002DC3DCC2EB3A257320202020EC
:1029200020202020200000002DC6B5C2CA3A203247
:102930002E342047487A202020000000000000208C
:10294000900A002010B5002000F025F810BD10B549
:1029500004461CB90021A62000F07CF9012C03D10B
:102960000021A72000F076F910BD10B504463CB94F
:102970000021C82000F06EF90021A12000F06AF9C2
:10298000012C07D10021C02000F064F90021A02013
:1029900000F060F910BD70B50646002419E004F19E
:1029A000B001C8B2002100F055F90021084600F03E
:1029B00051F90021102000F04DF9002505E001211A
:1029C000304600F047F9681CC5B2822DF7DB601C69
:1029D000C4B2082CE3DB70BD08B50121042000F06F
:1029E0003DFA3320ADF8000010208DF803000320DD
:1029F0008DF8020069463D48FEF79BFE33213B48B7
:102A0000FEF775FF0021AE2000F024F900210846F2
:102A100000F020F90021102000F01CF900214020D6
:102A200000F018F90021812000F014F90021CF20D6
:102A300000F010F90021A12000F00CF90021C820BD
:102A400000F008F90021A62000F004F90021A820D8
:102A500000F000F900213F2000F0FCF80021D32015
:102A600000F0F8F80021084600F0F4F80021D52025
:102A700000F0F0F80021802000F0ECF80021D920CF
:102A800000F0E8F80021F12000F0E4F80021DA205D
:102A900000F0E0F80021122000F0DCF80021DB203B
:102AA00000F0D8F80021402000F0D4F800212020C8
:102AB00000F0D0F80021022000F0CCF800218D2099
:102AC00000F0C8F80021142000F0C4F80021A42070
:102AD00000F0C0F80021A62000F0BCF80021AF20D3
:102AE00000F0B8F8FFF72EFF08BD00000008014015
:102AF0002DE9F047074688461646002584E03078E1
:102B0000A02845DD00253CE0702F04DD002708F1FA
:102B1000020000F0FF0830783E4911F81510884295
:102B20002ED17078012101EB45013A4A515C88426F
:102B300026D14146384600F077F8002407E004EB40
:102B40004511354A505C012100F084F8641C102CBA
:102B5000F5D308F10100C1B2384600F065F8002451
:102B600008E004EB451110312B4A505C012100F0C4
:102B700071F8641C102CF4D307F11000C7B204E004
:102B80006D1C264800688542BED300BFB61C3BE0E2
:102B90007A2F04DD002708F1020000F0FF083178E9
:102BA0001F48FDF72BFB8146B9F1000F2BD04146A2
:102BB000384600F039F800240AE099F8001020396E
:102BC00004EB0111174A505C012100F043F8641C2A
:102BD000082CF2D308F10100C1B2384600F024F805
:102BE00000240BE099F80010203904EB01110831A2
:102BF0000C4A505C012100F02DF8641C082CF1D324
:102C000007F10800C7B2761C307800287FF477AF50
:102C1000BDE8F087AC0900200C060020480A00201F
:102C2000E70900201C00002070B504460D4605F1A0
:102C3000B001C8B2002100F00DF8102141EA1410D3
:102C4000002100F007F804F00F00002100F002F866
:102C500070BD000070B504460E4626B1102118481C
:102C6000FEF745FE03E010211548FEF73EFE202149
:102C70001348FEF73AFE002517E001211048FEF741
:102C800034FE04F0800020B102210D48FEF72FFE33
:102C900003E002210A48FEF728FE01210848FEF75A
:102CA00026FE6006040E681CC5B2082DE5DB202157
:102CB0000348FEF71CFE10210148FEF718FE70BD08
:102CC0000008014010B5C0B004464FF4807168465A
:102CD000FDF76BFA35A00088208069462046FDF795
:102CE0006FFA4FF480716846FDF75FFA30A16846CD
:102CF00001F092FD69462046FDF762FA4FF48071BB
:102D00006846FDF752FA34A1684601F085FD694630
:102D10002046FDF755FA4FF480716846FDF745FAF5
:102D200030A1684601F078FD69462046FDF748FA73
:102D30004FF480716846FDF738FA2D4842782DA18E
:102D4000684601F069FD69462046FDF739FA4FF4FF
:102D500080716846FDF729FA2948027829A168465A
:102D600001F05AFD69462046FDF72AFA4FF48071BA
:102D70006846FDF71AFA27A1684601F04DFD69463D
:102D80002046FDF71DFA4FF480716846FDF70DFAF5
:102D900020A1684601F040FD69462046FDF710FA83
:102DA0002046FDF735FAC0B240B010BD7B000000F0
:102DB000226D6574686F64223A227468696E672EAA
:102DC000736572766963652E70726F70657274795F
:102DD0002E736574222C0000226964223A2231226B
:102DE0002C00000022706172616D73223A7B00003A
:102DF000202F002022666C616765223A25642C0032
:102E0000342F00202268616E676572223A25642C97
:102E1000000000007D0000007047000029B1064A54
:102E2000D2690243044BDA6104E0034AD269824367
:102E3000014BDA61704700000010024029B1064AD8
:102E400012690243044B1A6104E0034A1269824387
:102E5000014B1A61704700000010024029B1064A78
:102E600092690243044B9A6104E0034A92698243E7
:102E7000014B9A61704700000010024029B1064AD8
:102E8000D2680243044BDA6004E0034AD26882430A
:102E9000014BDA60704700000010024030B500219D
:102EA0000022002400232D4D6D6805F00C0121B196
:102EB000042905D0082923D105E0294D056022E029
:102EC000274D05601FE0254D6D6805F47012234DF8
:102ED0006D6805F48034022505EB92421CB9214D42
:102EE000554305600BE01D4D6D6805F400351DB1BF
:102EF0001C4D5543056002E0194D5543056002E045
:102F0000174D056000BF00BF144D6D6805F0F0015E
:102F10000909154D6B5C0568DD4045600F4D6D6816
:102F200005F4E061090A104D6B5C4568DD40856081
:102F30000A4D6D6805F46051C90A0B4D6B5C45681C
:102F4000DD40C560054D6D6805F44041890B074DB6
:102F50006B5CC568B5FBF3F5056130BD0010024040
:102F600000127A0000093D00620A0020720A002067
:102F700008B501210820FFF771FF2020ADF80000FF
:102F800069460448FEF7D5FB20210248FEF7ADFC58
:102F900008BD0000000C014000B5022202490348B0
:102FA000006800F0AFFC00BD9A0A00204C0A002027
:102FB00001460120704770B505460C460120A073FC
:102FC000FFF7EAFF00202070012070BD70B58CB0C3
:102FD00006460020089009900A900B9007900690F2
:102FE000059004900024039000253046FFF744FB31
:102FF0000446E01E0D2870D2DFE800F028707B93B5
:10300000ADCDB5CDC1CDCDCD070004AB07AA06A986
:103010003046FFF7BCF90546BDB9BDF810306BA0CE
:10302000DDE9061201F0E8FB08AADDE90601FEF77A
:1030300015FE50B96EA001F0DFFB099A91B2089815
:10304000FEF77AFA08A8FEF739FDA7E06E4803A953
:1030500004AA07ABCDE90021029005AA06A93046D3
:10306000FFF7EAF90546002D36D1BDF810000090B3
:10307000BDF8142065A0DDE9061301F0BDFB9DF845
:103080000C00012802D0022824D111E008A95E48D2
:103090000088FFF74AF850B96BA001F0ADFB099A20
:1030A00091B20898FEF748FA08A8FEF707FD12E06B
:1030B00008A955480088FFF780F850B968A001F0CA
:1030C0009BFB099A91B20898FEF736FA08A8FEF71A
:1030D000F5FC00E000BF00BF60E05CE03046FFF7B9
:1030E0008BFA10B964A001F087FB3C206A49087094
:1030F00054E03046FFF79EFA90B968A001F07CFBDF
:1031000008A90A20FFF77DF850B96AA001F074FB06
:10311000099A91B20898FEF70FFA08A8FEF7CEFCBC
:103120003CE0394801883046FFF793FA90B967A030
:1031300001F062FB08A90A20FFF71BF850B969A04B
:1031400001F05AFB099A91B20898FEF7F5F908A820
:10315000FEF7B4FC22E03046FFF75DFA10B968A034
:1031600001F04AFB1AE03046FFF7C0FA18B96AA02E
:1031700001F042FB02E06FA001F03EFB0EE03046A2
:10318000FFF7CEFA18B972A001F036FB02E077A083
:1031900001F032FB02E04FF0FF3500BF00BFFEF749
:1031A00085F8681C08B90CB070BD079810B1079875
:1031B00002F0B2FA0F2C01D0032C05D1069801F0D1
:1031C00043FB079801F040FB00BFECE7636D6469C7
:1031D000643A2025732C207265713A2025732C20C7
:1031E0007265715F6C656E3A2025640D0A000000FF
:1031F000546970733A0953656E6420436D64526577
:1032000073700D0A00000000920A0020746F70694C
:10321000633A2025732C20746F7069635F6C656E50
:103220003A2025642C207061796C6F61643A202506
:10323000732C207061796C6F61645F6C656E3A20ED
:1032400025640D0A00000000546970733A09536543
:103250006E64205075626C69736841636B0D0A007F
:10326000546970733A0953656E64205075626C69D5
:1032700073685265630D0A00546970733A094D51C1
:103280005454205075626C6973682053656E6420D5
:103290004F4B0D0A00000000900A00205469707323
:1032A0003A09526576205075626C6973685265639D
:1032B0000D0A0000546970733A0953656E6420501A
:1032C00075626C69736852656C0D0A00546970739D
:1032D0003A09526576205075626C69736852656C64
:1032E0000D0A0000546970733A0953656E642050EA
:1032F00075626C697368436F6D700D0A00000000A1
:10330000546970733A09526576205075626C69731E
:1033100068436F6D700D0A00546970733A094D511E
:10332000545420537562736372696265204F4B0D6C
:103330000A000000546970733A094D5154542053E7
:103340007562736372696265204572720D0A0000CE
:10335000546970733A094D51545420556E53756237
:10336000736372696265204F4B0D0A005469707374
:103370003A094D51545420556E5375627363726906
:103380006265204572720D0A00000000704700005F
:1033900010B5C8B000204490459046904790002456
:1033A0004FF4807104A8FCF700FF04A8FFF78AFC23
:1033B0000446002C19D044A801210022CDE90012B6
:1033C000234604AACDE9021009A10A20FEF7DCFD7C
:1033D00040B9459A91B24498FEF7AEF844A8FEF77A
:1033E0006DFB02E010A001F007FA48B010BD00002C
:1033F0002F7379732F6839736A454772316F6D384F
:103400002F757365722D6465766963652F746869BD
:103410006E672F6576656E742F70726F706572744B
:10342000792F706F737400005741524E0D0A0000DF
:1034300030B5C9B00446002045904690479048906A
:1034400000254FF4807105A8FCF7AFFE012C02D0D7
:10345000022C0AD104E005A8FEF756FB054605E05C
:1034600005A8FFF769F9054600E000BF00BFCDB130
:1034700045A801210022CDE900122B4605AACDE97D
:10348000021009A10A20FEF77FFD40B9469A91B2C9
:103490004598FEF751F845A8FEF710FB02E00AA098
:1034A00001F0AAF949B030BD2F62726F61646361A7
:1034B00073742F6839736A454772316F6D382F7492
:1034C00065737432000000005741524E0D0A00002F
:1034D00010B50A480088092805DD09480078012848
:1034E00001D1084908700748007828B1064802F061
:1034F000E5F8012000F0B2FF10BD0000AE0A002088
:10350000B40A0020560A0020F41A002010B500F07A
:1035100001F810BD0CB50020019000903348006800
:1035200040F480303149086000BF3048006800F442
:10353000003000900198401C0190009818B9019843
:10354000B0F5A06FF1D12948006800F4003010B147
:103550000120009001E0002000900098012843D154
:103560002348006840F010002149086008460068C0
:1035700020F0030008600846006840F00200086080
:103580001A4840681949486008464068486008463B
:10359000406840F4806048600846406820F47C1031
:1035A00048600846406840F4E810486008460068F3
:1035B00040F08070086000BF0C48006800F00070A8
:1035C0000028F9D00948406820F003000749486006
:1035D0000846406840F00200486000BF0348406869
:1035E00000F00C000828F9D10CBD000000100240CA
:1035F0000020024010B5044614B1012C0ED106E0A3
:10360000132007490880642001F0A8FF06E010207D
:1036100003490880642001F0A1FF00BF00BF10BD76
:103620004004004010B5044614B1012C0ED106E050
:10363000102007490880642001F090FF06E0182060
:1036400003490880642001F089FF00BF00BF10BD5E
:103650003C04004010B5044614B1012C0ED106E024
:103660000C2007490880642001F078FF06E0102054
:1036700003490880642001F071FF00BF00BF10BD46
:103680003804004010B5044634B1012C0BD0022C94
:1036900010D0032C1CD114E006200E4908806420B1
:1036A00001F05CFF14E009200A490880642001F061
:1036B00055FF0DE00C2007490880642001F04EFF03
:1036C00006E00F2003490880642001F047FF00BF97
:1036D00000BF10BD3404004010B501234FF47A72CE
:1036E0000D490E4802F092FC0123FA220C490D48C4
:1036F00002F08CFC012340F6B8320B490B4802F073
:1037000085FC064802F0B2FC064802F0AFFC074810
:1037100002F0ACFC10BD0000DD5E0008C412002009
:10372000F55E0008D412002009600008E4120020B1
:10373000F0B585B004460D460026002001900290A9
:103740000390049006E054F826101FA001F054F8EE
:10375000701CC6B2AE42F6DB01A82B4622460221FF
:1037600000901420FEF771FD00282BD1029A91B22F
:103770000198FDF7E1FE4FF4FA70FDF7A5FD07464D
:103780003846FEF779FF09280AD115A001F034F870
:1037900001A8FEF793F900201849C87005B0F0BDE4
:1037A00017A001F029F801A8FEF788F91348C0789E
:1037B000401CC0B21149C870022801DD00F044F875
:1037C0000120EBE70120E9E75375627363726962D8
:1037D0006520546F7069633A2025730D0A0000005C
:1037E000546970733A094D51545420537562736390
:1037F00072696265204F4B0D0A000000202F0020E7
:10380000546970733A094D5154542053756273636F
:1038100072696265204572720D0A0000042808D1A1
:103820004FF0E021096941F004014FF0E0221161FD
:1038300007E04FF0E021096921F004014FF0E02298
:103840001161704770470000012080F3138800BFAA
:1038500000BF0748006800F4E06006490843001D07
:1038600003490860BFF34F8F00BF00BFFEE70000B1
:103870000CED00E00000FA0510B51348006840F0B8
:1038800001001149086008464068104908400E4987
:103890004860084600680E4908400B490860084621
:1038A000006820F4802008600846406820F4FE008C
:1038B00048604FF41F008860FFF728FE4FF000605B
:1038C0000449086010BD0000001002400000FFF82D
:1038D000FFFFF6FE08ED00E010B501210820FFF71C
:1038E000BDFA01210846FFF7B9FA01210348FDF7A7
:1038F000ABFF01210248FDF7A7FF10BD0004300017
:103900000002300030B503460D480488B3F1006F63
:1039100001D2012030BD4FF0006000EB84209842BE
:1039200001D20220F6E703E018780870491C5B1CFE
:10393000101EA2F10105AAB2F6D100BFEAE700000D
:10394000E0F7FF1F10B588B0044601210220FFF701
:1039500065FA01210D20FFF781FAC020ADF81C00A7
:1039600018208DF81F0003208DF81E0007A94D4870
:10397000FDF7DFFE0320ADF81C0018208DF81F00B6
:1039800003208DF81E0007A94748FDF7D2FE4748DF
:1039900000F01EF9C720ADF8140041F61F40ADF845
:1039A00010000020ADF81600ADF812008DF81800D8
:1039B00004A93E4800F076FB7020ADF8000001201D
:1039C000ADF802000002ADF80C000020ADF80800D0
:1039D0006020ADF800000020ADF80E000820ADF822
:1039E0000A000420ADF804006946304800F0FEF9F2
:1039F00008212E4800F046FA6020ADF800000020B3
:103A0000ADF80E000820ADF80A000420ADF804005F
:103A10006946264800F040FA0821244800F08EFA52
:103A20006020ADF800000020ADF80E000820ADF8D1
:103A30000A000420ADF8040069461C4800F08CFA26
:103A400008211A4800F0D8FA6020ADF800000020E4
:103A5000ADF80E000820ADF80A000420ADF804000F
:103A60006946124800F0D2FA0821104800F00CFB19
:103A70000020FFF7BFFD0120FFF7D4FD0120FFF775
:103A8000E9FD0020FFF7FEFD0121084800F090F855
:103A90000121064800F06EF80121044800F07CF88E
:103AA00008B010BD00080140000C014000040040B7
:103AB00010B50121284800F07FF900284AD0274896
:103AC0000068401C2549086002F0F8FA23480068A5
:103AD0001921B0FBF1F201FB120010B900202049BE
:103AE00008701E4800686421B0FBF1F201FB12006F
:103AF000B8B91C480068401C1A4908601A48007888
:103B000078B91A480088002804DD18480088401C4D
:103B100016490880154800880A2802DD012012494C
:103B200008700E4800684FF47A71B0FBF1F201FBA7
:103B3000120058B90020094908600D480078002893
:103B400004DD0B480078401E094908700121024835
:103B500000F01FF810BD000000080040A80A002077
:103B6000AC0A0020B00A0020B40A0020AE0A0020EF
:103B7000900A002021B1028842F08002028004E015
:103B800002884FF67F731A4002807047CA43028250
:103B90007047CA430282704721B1028842F0010295
:103BA000028004E002884FF6FE731A4002807047DC
:103BB00031B1B0F8442042F40042A0F8442005E0BE
:103BC000B0F84420C2F30E02A0F844207047000071
:103BD00010B504466848844208D10121C014FFF79B
:103BE0004DF90021E014FFF749F9C4E0B4F1804F2A
:103BF00008D101210846FFF721F900210120FFF734
:103C00001DF9B8E05D48844208D101210220FFF788
:103C100015F900210220FFF711F9ACE05848844261
:103C200008D101210420FFF709F900210420FFF742
:103C300005F9A0E05348844208D101210820FFF78C
:103C4000FDF800210820FFF7F9F894E04E4884427F
:103C500008D101211020FFF7F1F800211020FFF713
:103C6000EDF888E04948844208D101212020FFF77F
:103C7000E5F800212020FFF7E1F87CE04448844289
:103C800008D101214014FFF7F9F800216014FFF773
:103C9000F5F870E03F48844209D10121C804FFF7DC
:103CA000EDF800214FF40020FFF7E8F863E03A4810
:103CB000844209D101210805FFF7E0F800214FF403
:103CC0008010FFF7DBF856E03448844209D1012127
:103CD0004805FFF7D3F800214FF40010FFF7CEF8A6
:103CE00049E02F48844208D101214020FFF7A6F87F
:103CF00000214020FFF7A2F83DE02A48844208D185
:103D000001218020FFF79AF800218020FFF796F824
:103D100031E02548844208D101218015FFF78EF853
:103D20000021A015FFF78AF825E02048844209D138
:103D300001210804FFF7A2F800214FF48030FFF7BB
:103D40009DF818E01A48844209D101214804FFF780
:103D500095F800214FF40030FFF790F80BE015487C
:103D6000844208D101218804FFF788F800214FF42C
:103D70008020FFF783F810BD002C014000040040B4
:103D800000080040000C00400010004000140040FB
:103D900000340140004C01400050014000540140FB
:103DA00000180040001C004000200040004001407E
:103DB000004401400048014030B502460020002385
:103DC0000024158A05EA0103958905EA010413B167
:103DD0000CB1012000E0002030BD1AB183890B43F3
:103DE000838102E083898B438381704770B500240F
:103DF00000220023058C4FF6FE7635400584028CA8
:103E00008388048B4FF68F752C40B51E2C400D888F
:103E10002C43751E2A400D892A434D882A43144D90
:103E2000A8420BD0134DA84208D0134DA84205D08C
:103E3000124DA84202D0124DA84213D14FF6F77589
:103E40002A404D892A434FF6FB752A408D882A4324
:103E50004FF6FF652B404FF6FF552B408D892B43C6
:103E6000CD892B4383800483CD888586028470BDF1
:103E7000002C01400034014000400140004401405A
:103E8000004801400A460021018B4FF6F7731940A4
:103E9000114301837047000070B500240022002305
:103EA000058C4FF6EF7635400584028C8388048BB1
:103EB00048F6FF752C404FF6FF452C400D884FF615
:103EC000FF7606EA05252C434FF6DF752A400D895B
:103ED00006EA05152A434D8806EA05152A43154DBD
:103EE000A84202D0144DA8421DD14FF67F752A403A
:103EF0004D894FF6FF7606EA05152A434FF6BF7542
:103F00002A408D8806EA05152A434FF6FF352B40D7
:103F10004FF2FF752B408D8906EA85052B43CD892D
:103F200006EA85052B4383800483CD8805870284B8
:103F300070BD0000002C0140003401400A46002101
:103F4000018B4FF2FF7319404FF6FF7303EA022310
:103F5000194301837047000070B50024002200233C
:103F6000058C4FF6FF6635400584028C8388848B70
:103F70004FF68F752C404FF6FC752C400D882C4366
:103F80004FF6FF552A400D894FF6FF7606EA0525C4
:103F90002A434D8806EA05252A43154DA84202D03A
:103FA000144DA8421DD14FF2FF752A404D894FF69E
:103FB000FF7606EA05252A434FF6FF352A408D880D
:103FC00006EA05252A434EF6FF752B404DF6FF7590
:103FD0002B408D8906EA05152B43CD8906EA051588
:103FE0002B4383808483CD888587028470BD000045
:103FF000002C0140003401400A460021818B4FF61D
:10400000F7731940114381837047000070B5002297
:1040100000230024058C4EF6FF7635400584038C82
:104020008488828B48F6FF752A404FF6FF452A4068
:104030000D884FF6FF7606EA05252A434DF6FF75F3
:104040002B400D8906EA05352B434D8806EA0535D8
:104050002B430B4DA84202D00A4DA84208D14BF683
:10406000FF752C408D894FF6FF7606EA85152C43A7
:1040700084808283CD88A0F84050038470BD000006
:10408000002C0140003401400A460021818B4FF290
:10409000FF7319404FF6FF7303EA0223194381832C
:1040A00070470000002202881D4B98420ED01D4B25
:1040B00098420BD0B0F1804F08D01B4B984205D0EE
:1040C0001A4B984202D01A4B984204D14FF68F7384
:1040D0001A404B881A43174B984207D0164B984208
:1040E00004D04FF6FF431A40CB881A4302808B88D6
:1040F00083850B8803850A4B98420BD0094B984265
:1041000008D00E4B984205D00D4B984202D00D4B73
:10411000984201D10B7A0386012383827047000005
:10412000002C014000340140000400400008004021
:10413000000C00400010004000140040004001400E
:1041400000440140004801400146022901D10248D3
:1041500000BF00BF704700000008004010B540F2EB
:1041600025511D4800F0B4F810B31B4800F06CF95D
:10417000C4B21A48008800F40040C8B91748008843
:1041800000F4804060B10A2C03D00020134908805D
:1041900020E01248008840F400401049088019E0EF
:1041A0000D2C06D10D48008840F480400B49088052
:1041B00010E00A480088C0F30D0009490C54074874
:1041C0000088401C0549088008460088C72801DD92
:1041D0000020088010BD000000380140600A002067
:1041E000F41C002010B540F22551104800F070F882
:1041F000D0B10E4800F028F9C4B20D480088FF285D
:1042000007DA0B4801880088401C094A10800948D9
:1042100044540120084908800020084908702021E2
:10422000024800F033F8002410BD000000440040B4
:10423000540A0020F41A0020AE0A0020B40A00201C
:1042400010B540F225510E4800F042F8B0B10D48CB
:104250000088FF2802D900200A4908800848001D6C
:104260000088C1B2074802880088401C054B1880AE
:10427000054881542021024800F008F810BD0000D4
:1042800000480040760A00202026002001F4007239
:10429000B2F5007F00D100BFCA430280704721B150
:1042A000828942F40052828104E082894DF6FF73D4
:1042B0001A408281704702460020B1F5007F00D18C
:1042C00000BF13880B400BB1012000E000207047B5
:1042D00070B50246002400230025002040F66A162F
:1042E000B14200D100BFC1F3421501F01F03012606
:1042F00006FA03F3012D02D19689334006E0022D20
:1043000002D1168A334001E0968A33400C1201260E
:1043100006FA04F41688344013B10CB1012000E011
:10432000002070BDF0B503460024002600250020C3
:1043300040F66A17B94200D100BF1846C1F34214D3
:1043400001F01F06012707FA06F5012C01D10C30F8
:1043500004E0022C01D1103000E014301AB10768DB
:104360002F43076002E00768AF430760F0BD00001D
:104370002DE9F04786B005460E460024A24600BF50
:10438000A1460027B08900B100BF2F462C8A4CF609
:10439000FF700440F08804432C82AC894EF6F31081
:1043A0000440B08831890843718908430443AC81D3
:1043B000AC8A4FF6FF400440B0890443AC8201A8A8
:1043C000FEF76CFD1F48874202D1DDF810A001E026
:1043D000DDF80CA0A88900F4004040B10AEBCA0047
:1043E00000EB0A1031684900B0FBF1F807E00AEB76
:1043F000CA0000EB0A1031688900B0FBF1F86420B4
:10440000B8FBF0F004012009642101FB1089A889A0
:1044100000F4004040B1322000EBC900B0FBF1F0E5
:1044200000F00700044308E0322000EB091064218B
:10443000B0FBF1F000F00F0004432C8106B0BDE8A2
:10444000F08700000038014001468888C0F308006A
:104450007047C1F3080282807047000010B504461F
:1044600024B1012C09D0022C15D113E00B4A0C48C1
:1044700001880CA000F0C0F90EE04FF480710748ED
:10448000FBF793FE0020064908800C4908700C4990
:10449000088001E000E000BF00BF10BDF41A00205A
:1044A000540A0020756172743220726563763A2076
:1044B00025642C2025730D0A00000000560A0020F8
:1044C000AE0A002010B51348007B01280BD1022052
:1044D000104988721048007810B901200E49087000
:1044E00003200C4948730C48007888B10A480078CA
:1044F000012802D0022807D103E00120FEF798FF2F
:1045000002E0FEF745FF00BF00BF0020024908702F
:10451000012010BD342F0020202F002000B58FB0C7
:104520001CA102A800F078F902AA00210846FEF7B3
:10453000DFFA1A48008900901848C388828818A1B9
:1045400002A800F069F902AA02210020FEF7D0FAC1
:104550001748407C20B917A102A800F05DF910E0CF
:104560001348407C012804D116A102A800F054F998
:1045700007E00F48407C022803D116A102A800F0F2
:104580004BF902AA04210020FEF7B2FA01200FB075
:1045900000BD0000B1E0C2EB20202000342F00203D
:1045A000253034642D253032642D253032642000CE
:1045B000202F0020D7B4CCAC3A20BAECC9AB2020D5
:1045C00020000000D7B4CCAC3A20C2CCC9AB20202C
:1045D00020000000D7B4CCAC3A20C0B6C9AB202034
:1045E0002000000000BFFEE710B586B004460121A0
:1045F00044F20400FEF732FC4FF40070ADF81400F2
:1046000003208DF8160018208DF8170005A91C4806
:10461000FDF78FF84FF48060ADF8140004208DF89A
:10462000170005A91648FDF784F825208DF800002D
:1046300003208DF801008DF8020001208DF80300A1
:104640006846FEF7C3F801940020ADF80800ADF805
:104650000A00ADF80C00ADF810000C20ADF80E000B
:1046600001A90848FFF784FE012240F225510548C0
:10467000FFF758FE01210348FFF711FE06B010BDF9
:10468000000801400038014070B586B006460C466F
:10469000154601210420FEF7E1FB01214804FEF745
:1046A000BDFB0420ADF8140018208DF8170003207E
:1046B0008DF8160005A91748FDF73BF80820ADF85E
:1046C000140004208DF8170005A91248FDF731F8F1
:1046D00001960020ADF80800ADF80A00ADF80C0016
:1046E000ADF810000C20ADF80E0001A90A48FFF744
:1046F0003FFE29462046FEF754F8012240F225519C
:104700000548FFF70FFE01210348FFF7C8FD06B07B
:1047100070BD0000000801400044004010B586B0A4
:10472000044601210820FEF799FB01218804FEF7C9
:1047300075FB18208DF817004FF48060ADF8140059
:1047400003208DF8160005A91D48FCF7F2FF042090
:104750008DF817004002ADF8140003208DF8160004
:1047600005A91748FCF7E5FF01940020ADF81000FB
:104770000C20ADF80E000020ADF80C00ADF80A00DA
:10478000ADF8080001A90F48FFF7F2FD01210D481F
:10479000FFF785FD012240F225510A48FFF7C2FDCF
:1047A00027208DF8000001208DF803008DF801000E
:1047B0008DF802006846FEF709F806B010BD00004B
:1047C000000C01400048004070B504460D4600262C
:1047D0000DE014F8011B0748FFF73BFE00BF402126
:1047E0000448FFF768FD0028F9D0701C86B2AE427D
:1047F000EFDB70BD004800400FB4054B10B503A9B6
:10480000044A029800F050F910BC5DF814FB000057
:10481000A95500085C0A00200FB4084B10B504A984
:1048200002AA039800F040F9044602A9002000F013
:10483000BEFC204610BC5DF814FB0000AF51000820
:1048400000487047C00A002030B528B1144C031F3F
:10485000002021680A4605E0084630BD9A4203D888
:1048600010465268002AF9D1002800D041680BD0C8
:104870000468A3EB0005A54204D11B681C44034651
:10488000046002E0436000E023603AB11C68D51A7E
:10489000A54203D115682C441C6052685A6030BD93
:1048A000B80A00202DE9F04782460F4C10480D4E03
:1048B0000E4F001B4FF0000820F007054FF00109D4
:1048C00000221146504600F0A9FE002802D13068AF
:1048D00010B10020BDE8F0873C60C4E90058C6F87C
:1048E0000090EDE7BC0A00204C2F0020B80A002001
:1048F000483B002002E008C8121F08C1002AFAD174
:1049000070477047002001E001C1121F002AFBD14F
:10491000704700002DE9FF5F82B00021DDE904301F
:10492000020DDDF840B0034318D044F61050A2F257
:10493000FF3242431514119801281FD0A5EB0B003C
:10494000401C5FEA000A4FF000064E4FDFF8389136
:10495000B046504615D5CAF1000413E01198012461
:104960004AA3012801D16FEA0B010298119AC0E90C
:104970000031C0E9024206B0BDE8F09FCBF1000073
:10498000DFE704460021404A491842EB0450CDE9D4
:10499000001012E0E00707D032463B464046494649
:1049A000FBF7D2FE8046894632463B461046194602
:1049B000FBF7CAFE06460F466410002CEAD1DDE97B
:1049C0000401DDE90023BAF1000F06DAFBF7BCFEB3
:1049D00042464B46FBF7B8FE05E0FCF7F2F84246CC
:1049E0004B46FCF7EEF804460E460022284BFBF738
:1049F00055FF03D84FF0FF30014607E00022254B5A
:104A000020463146FBF7F9FDFCF756F9102409E082
:104A1000002C0ADB0A220023FBF76EFF039B3032D7
:104A20001A55641E50EA0102F2D1641C039AC4F1C3
:104A300011031444119A012A03D0012208430DD115
:104A40000AE0084304D000204FF0110B119072E7E8
:104A5000A3EB0B056D1E0DE05B4504DD4FF000027E
:104A600005F1010504E003DA4FF00002A5F10105AC
:104A7000002AECD002981199C0E90231C0E9004542
:104A800079E70000000014400000F03F3000000013
:104A90000000F0430000E03F30380A2801D2012036
:104AA00070470020704700002DE9FF4F95B09A46EF
:104AB000884606460025EEE1252877D100242746C2
:104AC000F94A0121039400E0044316F8013F203B1A
:104AD00001FA03F01042F7D130782A2811D06FF094
:104AE0002F033078A0F13002092A16D8039A44F037
:104AF000020402EB820203EB42021044761C039094
:104B0000EFE758F8042B0392002A03DA504244F4EA
:104B10000054039044F00204761C30782E2816D1FD
:104B200016F8010F44F004042A280DD06FF02F026C
:104B30003078A0F13003092B09D807EB870302EB8B
:104B40004303C718761CF3E758F8047B761C3078CB
:104B50006C280FD006DC4C2817D068280DD06A28A6
:104B600014D104E0742810D07A280FD10DE044F459
:104B700000140AE044F4801401E044F44014727814
:104B8000824202D104F58014761C761C30786628A7
:104B90000BD013DC582877D009DC002875D04528C5
:104BA000F6D04628F4D047281AD193E118E06328BC
:104BB00035D0642879D0652812D18BE1702873D064
:104BC00008DC6728F1D069286FD06E280DD06F28D7
:104BD00006D1ACE073282CD0752874D0782853D037
:104BE0005246179990476D1C54E1C4F302500228B5
:104BF00009D003280DD0D8F8001004280DD00D607E
:104C000008F1040846E1D8F80010EA17C1E900529B
:104C1000F6E7D8F800100D80F2E70D70F0E718F80D
:104C2000041B8DF8001000208DF80100EB460120D8
:104C300003E058F804BB4FF0FF3061074FF000016C
:104C400002D40DE009F101018946B9420FDA81452C
:104C5000F8DB1BF809100029F4D108E009F1010183
:104C600089468142FADB1BF809100029F6D1039826
:104C70005346A0EB090721463846179A00F080FA00
:104C8000284400EB090507E044E008E10DE01BF8CB
:104C9000010B524617999047B9F10109F7D25346D3
:104CA00021463846179AF2E039E00A21C4F302524D
:104CB0004FF0000B0091022A06D058F8040BC117E0
:104CC000032A09D00AE023E008F1070020F00702D8
:104CD000F2E80201904605E000B2C117042A01D1B2
:104CE00040B2C117002906DA0A460021404261EBB2
:104CF00002012D2202E0220504D52B228DF804208A
:104D0000012203E0E20701D02022F7E7914657E0B5
:104D10000A2100E010214FF0000B00910BE0102160
:104D20004FF0000B44F004040827009103E0082032
:104D30004FF0000B0090C4F30252022A05D058F83D
:104D4000040B0021032A08D008E008F1070020F036
:104D50000702F2E80201904603E080B2042A00D183
:104D6000C0B24FF0000922072AD53278702A07D046
:104D7000DDF800C08CF0100C5CEA0B0C05D00EE0E6
:104D800040228DF80420012208E050EA010306D0F9
:104D900030238DF804308DF8052002229146009BC7
:104DA00083F0080353EA0B030AD150EA010201D150
:104DB000620705D530228DF804204FF001097F1ECF
:104DC0003278582A04D039A20C920CAA02920BE035
:104DD0003BA2F9E75B46009AFBF78EFD0C9B9B5CC0
:104DE000029A521E0292137050EA0102F2D1029806
:104DF00004A9081A00F1200B600702D524F48034BE
:104E000000E001275F4502DDA7EB0B0000E000207A
:104E100000EB0B01009003984944401A0390E00313
:104E200006D453462146179A039800F0A9F9054481
:104E3000002706E001A85246C05D179990476D1CF7
:104E40007F1C4F45F6DBE0030CD553462146179AED
:104E5000039800F095F9054404E030205246179974
:104E600090476D1C0099481E00900029F5DC08E071
:104E70000298029952460078491C0291179990476E
:104E80006D1CBBF10001ABF1010BF1DC5BE100F04B
:104E900065F90544761C307800287FF40DAE19B012
:104EA0002846BDE8F08F0000092801003031323378
:104EB0003435363738396162636465660000000056
:104EC0003031323334353637383941424344454640
:104ED00000000000600700D4062708F1070020F05A
:104EE0000700F0E80223804603F0004C5FEA0C0064
:104EF00001D097A009E0200501D596A005E0E007C4
:104F000001D095A001E0AFF24C001390307823F06F
:104F1000004365280CD006DC452809D046281DD062
:104F200047287FD13BE0662818D067287AD136E041
:104F30000021112F01DB112000E0781CCDE90001D8
:104F400004A90CA8FFF7E6FCDDE90D010C9A4FF06F
:104F5000000B07F10109109200914EE04FF0004064
:104F60000097CDE9011004A90CA8FFF7D3FCDDE9F7
:104F70000D020C9B0F994FF0000B9146109300927D
:104F800011B9791C00EB0109B7EB090003D4C0F19A
:104F9000FF3B07F10109A9EB0700019042E0012F57
:104FA00000DA01270021112F01DD112000E0384631
:104FB000CDE9000104A90CA8FFF7ACFCDDE90D0167
:104FC0000C9A00914FF0000BB946109221070FD4B4
:104FD000009A4A4503DA914601E0A9F10109B9F1C5
:104FE000010F05DD109AA9F10101515C3029F4D0BF
:104FF000B84202DA10F1040F03DA0121CDE9011001
:1050000010E0002803DC8344A9EB000102E0411C0E
:10501000494500DD8946A0EB0B00401C01904FF094
:1050200000400290200705D40198484502DB4FF06C
:10503000FF30019000208DF84B0002980DF14B07D6
:10504000B0F1004F25D002200C902B200D9002983B
:1050500000280CDA404202902D200D9007E00A2132
:105060000298FBF733FC3031029007F8011D0C99D0
:10507000481E0C900029F2DC02980028EFD1791E1E
:105080000D980870307800F0200040F0450007F8D7
:10509000020D11A8C01BC01D02901398007800B12A
:1050A000012000EB0901019801EBE0710298014435
:1050B0000398401A401E0390E00306D4534621464D
:1050C000179A039800F05CF805441398007818B11B
:1050D0005246179990476D1CE00323D5534621464D
:1050E000179A039800F04CF805441BE0BBF1000F41
:1050F00007DB0098584504DD1098179910F80B004D
:1051000001E0179930205246904701980BF1010BAE
:10511000401E05F10105019004D12E205246179939
:1051200090476D1CB9F10001A9F10109DEDC05E031
:1051300017F8010B5246179990476D1C0299481EAB
:1051400002900029F4DC53462146179A03989EE604
:105150002D0000002B000000200000002DE9F04190
:10516000044600251E461746880404D405E0394647
:105170002020B0476D1C641EF9D52846BDE8F0819B
:105180002DE9F041044600251E469046C80301D58E
:10519000302700E02027880404D505E04146384642
:1051A000B0476D1C641EF9D52846BDE8F0810A6839
:1051B000531C0B601070704710B50120FEF71AFAEF
:1051C0004FF4FA7000F0CAF90020FEF72BFA4FF402
:1051D000FA7000F0C3F90120FEF754FA4FF4FA70A8
:1051E00000F0BCF90020FEF705FAFA2000F0B6F94D
:1051F0000020FEF747FA4FF4FA7000F0AFF90120F3
:10520000FEF710FA4FF4FA7000F0A8F910BD10B5CF
:105210000120FEF7EFF94FF4FA7000F09FF900203B
:10522000FEF700FA4FF4FA7000F098F90120FEF74B
:1052300029FA4FF4FA7000F091F90220FEF722FAF1
:105240004FF4FA7000F08AF90020FEF7D3F9FA2043
:1052500000F084F90020FEF715FA4FF4FA7000F020
:105260007DF90120FEF7DEF94FF4FA7000F076F9CF
:1052700010BD10B50120FEF7BDF94FF4FA7000F033
:105280006DF90020FEF7CEF94FF4FA7000F066F9E0
:105290000120FEF7F7F94FF4FA7000F05FF90220F1
:1052A000FEF7F0F94FF4FA7000F058F90320FEF71A
:1052B000E9F94FF4FA7000F051F90020FEF79AF97D
:1052C000FA2000F04BF90020FEF7DCF94FF4FA70F9
:1052D00000F044F90120FEF7A5F94FF4FA7000F050
:1052E0003DF910BD014609B1086808B900207047B2
:1052F00019B1D1E90120904201D30846F7E702E055
:105300008868401C886041B1D1E90120904204D2F4
:105310008A680868805C2028F2DDD1E9012090428B
:1053200002D18868401E88600846E0E770B50446F0
:10533000002522E02568A08900F4807020B9A068CB
:1053400010B1A068FFF7F2FFA08900F4807028B9BF
:10535000206918B10A4A206951688847A08900F479
:10536000007028B9206A18B1054A206A5168884738
:1053700003484168204688472C46002CDAD170BD8E
:10538000840A002070B504460D46002229462046B6
:1053900000F01AF970BD70B50446282021688847CE
:1053A00005461DB128212846FAF7FFFE284670BDA4
:1053B00010B5044600221146204600F06BF810BDDF
:1053C0002DE9F0478AB004460E46154698461C2142
:1053D00003A8FAF7EAFE002700202C49086048607D
:1053E00004B106B932E00394049600200590284ADF
:1053F00007CA07AB07C32648FFF7CDFF074607B923
:1054000024E003A800F03EFD8246FFF76BFF8146D3
:105410004946384600F062FC00B917E0B8F1000FC9
:105420000BD003A8FFF75EFFDDE90410884203D22A
:1054300005990398405C00B108E01DB105990398F7
:105440000844286038460AB0BDE8F08717B13846EE
:10545000FFF76CFFC4B1019400200290DDE9041055
:10546000884202D20598029004E0049810B1049892
:10547000401E02901DB1DDE9010108442860034887
:10548000DDE9011206C000BF0020DCE77C0A002035
:10549000840A00202DE9F04104460D46164614B951
:1054A0000020BDE8F0812046FAF7B2FE471C3346E3
:1054B0002A4639462046FFF783FFF2E770B50446D7
:1054C0000D4604B10DB9012070BDAC4201D10020E0
:1054D000FAE705E0207808B90020F5E7641C6D1CA8
:1054E0002078FAF743FE06462878FAF73FFE864210
:1054F000F0D02078FAF73AFE06462878FAF736FE1A
:10550000301AE1E7002003498880C8808872C87299
:1055100070470000342F002010B56FF00400FEF734
:105520007DF90A4800680A49B0FBF1F009490870A2
:105530000846007800EB4001C1EBC0104FF6FF7148
:1055400001EAC0000449088010BD000004000020EA
:1055500000127A00580A00205A0A00200146114A17
:1055600012884A434FF0E0235A6100229A611A469A
:10557000126942F001021A6100BF4FF0E022106987
:1055800000F001021AB100F48032002AF5D04FF089
:10559000E022126922F001024FF0E0231A6100229A
:1055A0009A6170475A0A002000BF054A128802F02B
:1055B0004002002AF9D0C2B2014B1B1D1A8070476D
:1055C000003801402E2070472DE9F04105460E4677
:1055D0001746002405B116B90020BDE8F081AC687B
:1055E0005FB100E024688CB1206A78B13046216A4E
:1055F000FAF715FE0028F5D108E000E024682CB188
:105600003046216AFFF75AFF0028F7D10CB1206A13
:1056100008B90020E1E72046DFE700002DE9F0416E
:105620000B3020F00706104D19E02068B04215D36A
:10563000B0420AD9871B201DD4F80480FAF79CFDDC
:10564000A019C0E90078286004E060682860201D87
:10565000FAF792FD201D2660BDE8F081251D2C681B
:10566000002CE2D10020F7E7B80A00200024FEF762
:1056700033F8FCF741F96420FBF78CFCFDF7E8F800
:1056800001210C48FEF788FA13E000F0CFFC00205F
:10569000FBF71AFE044614B12046FDF797FCFDF710
:1056A00017FF0548007820B9FBF788FC0120024964
:1056B0000870EAE700080040AC0A0020FEB5064684
:1056C000002400253A213046FAF798FD0446DCB163
:1056D000641C05E014F8012B28466D1C0DF8002011
:1056E0002078302802DB20783928F3DD00200DF8FF
:1056F00005006846FAF774FF054604A13046FAF73C
:105700006BFD08B103494D740120FEBD636F6C6FE2
:1057100072000000202F002070B50646002430469D
:10572000FFF746FE044624B910A0FFF765F80020F5
:1057300070BD12A12046FFF725FE057D012D06D084
:10574000022D05D0032D07D0042D07D105E006E07A
:1057500000200B49887202E001E000E000BF00BFBA
:105760002046FFF7E3FD0120E2E70000706172735D
:1057700065206661696C2E0A00000000636D64009C
:10578000342F00202DE9F04180460C4600250027EB
:10579000E068B0F57A7F02D30020BDE8F081E068D0
:1057A000401CE060A1682068405C5B2800D05FE09E
:1057B000A068401CA0602046FFF794FD4CB1D4E9DE
:1057C0000110884205D2A1682068405C5D2800D1A4
:1057D0003FE01CB1D4E90110884203D3A068401E09
:1057E000A06045E0A068401EA06000BF04F110006A
:1057F000FFF7D1FD064606B93AE015B935463746FA
:1058000002E03E6077603746A068401CA0602046FA
:10581000FFF768FD2146384600F060FA00B927E03E
:105820002046FFF75FFD44B1D4E90110884204D25D
:10583000A1682068405C2C28D8D044B1D4E901107C
:10584000884204D2A1682068405C5D2800D00FE047
:1058500000BFE068401EE06005B16F602020C8F81E
:105860000C00C8F80850A068401CA060012094E714
:1058700015B12846FFF75AFD00208EE702460023A7
:10588000002100BF23E0505C302806DB505C392843
:1058900003DC505C3038034415E0505C412806DBE3
:1058A000505C462803DC505C373803440BE0505C06
:1058B000612806DB505C662803DC505C57380344E3
:1058C00001E000207047032900D21B01491C042974
:1058D000D9D31846F6E700002DE9F04391B0804691
:1058E0000C4600BF00201090FFF76CFE814600259B
:1058F0000CB1206818B9002011B0BDE8F083002574
:105900003CE0A16820680844405D342820D00ADCCF
:10591000A0F12B0009282ED2DFE800F0202D212A4B
:105920002D1617181900382816D006DC352810D087
:1059300036280FD037281ED10DE039280DD0452844
:105940000FD0652817D10BE000BF00BF00BF00BF1C
:1059500000BF00BF00BF00BF00BF00BF00BF00BF4F
:1059600000BFA16820680844405D0DF8050003E011
:105970000DF8059000E00AE000BF6D1C3F2D05D238
:1059800024B1A068284461688842BAD300BF0020CF
:105990000DF8050010A9684600F092FA06460F4679
:1059A00068461099884201D10020A5E7C8E906673A
:1059B000144A154B30463946FAF770FF04D86FF099
:1059C0000040C8F8140011E00022104B3046394660
:1059D000FAF74CFF04D84FF00040C8F8140005E077
:1059E00030463946FAF722FFC8F814000820C8F8F4
:1059F0000C00A0686A461099891A0844A06001202A
:105A00007AE700000000C0FFFFFFDF410000E0C1B7
:105A10002DE9F04180460C4600260025E068B0F5EF
:105A20007A7F02D30020BDE8F081E068401CE0608E
:105A300044B1D4E90110884204D2A1682068405CD6
:105A40007B2800D07DE0A068401CA0602046FFF7C6
:105A500049FC4CB1D4E90110884205D2A168206804
:105A6000405C7D2800D15DE01CB1D4E90110884282
:105A700003D3A068401EA06063E0A068401EA06041
:105A800000BF04F11000FFF786FC074607B958E095
:105A900016B93E463D4602E02F607D603D46A06857
:105AA000401CA0602046FFF71DFC2146284600F060
:105AB0004EF800B945E02046FFF714FC286928623B
:105AC0000020286144B1D4E90110884204D2A168C1
:105AD0002068405C3A2800D033E0A068401CA060F9
