:020000040800F2
:10000000703C0020490100086D2600088F17000889
:100010008B250008B10D0008994000080000000081
:10002000000000000000000000000000E92F0008B0
:100030000D0F0008000000009D2A00082D33000865
:100040006301000863010008630100086301000800
:1000500063010008630100086301000863010008F0
:1000600063010008630100086301000863010008E0
:1000700063010008630100086301000863010008D0
:1000800063010008630100086301000863010008C0
:1000900063010008630100086301000863010008B0
:1000A00063010008630100086301000863010008A0
:1000B00063010008630100081D37000863010008A0
:1000C0006301000863010008630100086301000880
:1000D00063010008893D000863010008113E000823
:1000E0006301000863010008630100086301000860
:1000F0006301000863010008630100086301000850
:10010000630100086301000863010008630100083F
:10011000630100086301000863010008630100082F
:10012000630100086301000863010008630100081F
:10013000DFF810D000F0AEFD004800475D4F00082A
:10014000AFF30080703C0020064880470648004717
:10015000FEE7FEE7FEE7FEE7FEE7FEE7FEE7FEE777
:10016000FEE7FEE76133000831010008A0F141011C
:10017000192900D82030704740EA01039B0703D0BB
:1001800009E008C9121F08C0042AFAD203E011F8D6
:10019000013B00F8013B521EF9D27047D2B201E098
:1001A00000F8012B491EFBD270470022F6E710B57C
:1001B00013460A4604461946FFF7F0FF204610BDD5
:1001C000421E12F8013F002BFBD111F8013B02F84F
:1001D000013B002BF9D1704730B505462A460B4646
:1001E00012F8010B13F8014B08B1A042F8D01CB172
:1001F000002802D06D1CF1E7284630BDCAB2401E6F
:1002000010F8011F8A4202D00029F9D1002070475E
:10021000421C10F8011B0029FBD1801A704710B551
:10022000002200E0521C835C8C5CA34201D1002BB5
:10023000F8D1D8B2E1B2401A10BD10B5044600E0C2
:10024000401C0378002BFBD100E0401C521E04D35D
:1002500011F8013B0370002BF7D1002101702046FB
:1002600010BD30B505460020034600E05B1C9342FC
:1002700005D2EC5CC85C201A01D1002CF6D130BD4F
:100280002DE9FF4F087883B09946FF2805D0491C17
:100290002D2804D00024002008E000200BE00124D9
:1002A000F9E700EB800003EB4000491C0B78FF2BC3
:1002B000F7D104B1404200230293147819461D4639
:1002C0002D2C01D02B2C04D1521C2D2C13D000240A
:1002D0000294AA461478FF2C0FD00A25A3FB0578B8
:1002E00001FB05814FF0000C03FB0C11521CE319BC
:1002F0004AEB0101EEE70124EAE7814453EA0100F9
:1003000002D019F5C87F06DA03980021C0E9001170
:1003100007B0BDE8F08F0025AE4E2F46DFF8B8825B
:10032000184600F077FCCDE90001B9F1000002DACF
:10033000C9F1000400E004460023A74A1AEB030BAE
:1003400042EB045A12E0E00707D02A46334638460B
:10035000414600F0ECF9074688462A4633461046E7
:10036000194600F0E4F905460E466410002CEAD167
:10037000DDE90001B9F1000F5A46534606DA00F0F4
:10038000DAFB3A46434600F0D6FB05E000F0CFF931
:100390003A46434600F0CBF9029A0AB181F0004197
:1003A000039AC2E90001B3E72DE9FF4F1F468DB064
:1003B000D7E901464FF0FF382E2045464FF000099F
:1003C0000B90B9696D1C0E988847396A8246884738
:1003D0000028F6D1BAF1FF3F0AD024F4D064002EF1
:1003E00011DDBAF12B0F08D0BAF12D0F0BD102E0BD
:1003F000404611B08DE744F48064B9696D1C0E98D5
:1004000088478246761E6946600501D52D2000E0AA
:100410002B208DF8000001F1010B0DF1200809E0FF
:10042000B9696D1C0E98884782460F9844F4007491
:10043000761E0560002E02DDBAF1300FF0D00B9968
:100440008A453ED144F0800406E00F99681CA9F16A
:10045000010944F400740860B9696D1C761E0E9899
:10046000884782463028F0D02BE00B998A4505D189
:10047000200603D444F08004761E18E0504604F0B1
:1004800023F808B30DF11301761E44F400748B4574
:1004900008D2AAF130000BF8010B200607D5A9F10C
:1004A000010003E0200602D409F101008146A00505
:1004B00002D50F99681C0860B9696D1C0E988847B1
:1004C0008246002ED1DC53E0002E51DDBAF1650FDB
:1004D00002D0BAF1450F4BD1A00549D5B9696D1CC1
:1004E00024F44074761E0E9888478246002E0CDD58
:1004F0002B2804D0BAF12D0F07D144F48074B969C8
:100500006D1C0E9888478246761EE00501D52D2188
:1005100000E02B2108F8011BCDF82C8021E00DF123
:100520002901761E44F4007488450CD2AAF13000EB
:1005300010F0FF0088F8000002D10B99884509D916
:1005400008F1010806E0E00501D5244801E042F287
:100550000F708146B9696D1C0E98884782460F98C6
:100560000560002E04DD504603F0AEFF0028D6D112
:10057000F9690E988847FF208BF8000088F8000082
:100580000020069007904B466A4608A906A8FFF788
:1005900077FEA00502D46FF001002AE714F0240FC3
:1005A0000AD0E00714D1DDE906123868031D3B606C
:1005B0000068C0E900120BE0DDE9060100F04EFB27
:1005C0000146E00704D13868021D3A600068016006
:1005D00028460EE7000014400000F03FF1D8FFFF6E
:1005E0002DE9FE4F804681EA0300C00F0C460090C3
:1005F00021F0004123F00045B8EB0200A94105D2EB
:100600004046214690461C460B46024623F00040D9
:10061000104347D0270DC7F30A00C3F30A510290D5
:10062000401A019040286BDAC3F3130040F4801B9A
:100630000098924620B10023D2EB030A63EB0B0B28
:1006400001985946C0F14002504600F078F906463C
:100650000D4650465946019A00F090F910EB0800FB
:100660006141002487EA115284EAE7731A4340D0BB
:10067000009A62B3019A012A4FEA075215DC001B67
:1006800061EB02014FF0004202EA0752CDE900425D
:10069000001C41F5801132462B4600F0FEF903B0F4
:1006A000BDE8F08F40462146F9E7001B61EB0201EF
:1006B000001C41F5801300185B412018A2F50017BB
:1006C00047EB030140EAD570B6196D4111E06D08A2
:1006D0004FEA360645EAC0754FEA0752001B61EB48
:1006E0000201001C41F5801149084FEA3000001951
:1006F000514132462B4603B0BDE8F04F00F0BEB981
:100700000098012240000023D0EB020263EBE0736B
:10071000009821464FEAE074B8EB000061EB040159
:10072000E9E783F000435BE781F0004158E72DE9FA
:10073000FE4F81EA030404F0004421F000410094DC
:100740004FF0000B23F0004350EA01045ED052EA60
:1007500003045BD0C3F30A54C1F30A552C44A4F23A
:10076000F3340194A0FB0254C1F3130141F480114E
:10077000C3F3130343F4801301FB024400FB034E55
:10078000840A970A44EA815447EA8357A4FB07681E
:1007900002958D0A05FB07854FEA932C04FB0C5448
:1007A0002705029D4FEA065847EA1637B5EB0805BC
:1007B0006EEB070C870E920E47EA811742EA83120E
:1007C000A7FB0201B6EB0B0164EB00042B0D43EA1F
:1007D0000C335E1844EB1C50DA465146E7FB02012D
:1007E000C5F313044FEA0B3343EA14534FEA0432C0
:1007F000019C43EA0603A4F10C040294009CCDE999
:1008000000B400F04AF903B0BDE8F08F00200146C3
:10081000F9E770B5C1F30A5201F000450024C1F3B5
:10082000130140F2FF3341F480119A4201DA0020B3
:1008300070BD40F233439A42A2F2334203DC52428B
:1008400000F08CF800E090402C43F1D0404270BDA5
:1008500030B5041E71F1000404DB4FF00044404247
:1008600064EB0101141E73F1000405DB1C464FF01C
:100870000043524263EB04038B4208BF824230BD07
:1008800030B5041E71F1000404DB4FF00044404217
:1008900064EB0101141E73F1000405DB1C464FF0EC
:1008A0000043524263EB0403994208BF904230BDBB
:1008B00030B50B46014600202022012409E021FA30
:1008C00002F59D4205D303FA02F5491B04FA02F52D
:1008D0002844151EA2F10102F1DC30BD2DE9F05FC4
:1008E0000546002092469B4688460646814640249F
:1008F0001BE0284641464746224600F02FF8534663
:100900005A46C01A914110D311461846224600F0AB
:1009100016F82D1A67EB01084F46224601200021E8
:1009200000F00DF817EB00094E41201EA4F1010460
:10093000DFDC484631462A464346BDE8F09F202A80
:1009400004DB203A00FA02F1002070479140C2F126
:10095000200320FA03F3194390407047202A04DB58
:10096000203A21FA02F00021704721FA02F3D04028
:10097000C2F120029140084319467047202A06DB45
:10098000CB17203A41FA02F043EAE07306E041FA5D
:1009900002F3D040C2F1200291400843194670474B
:1009A000426842B1016811F8013B23B1521EC0E90F
:1009B0000012184670470121C160881E70474268C6
:1009C0005AB1C368016843B983688B4205D0491E98
:1009D000521CC0E90012002070474FF0FF307047F2
:1009E0000FB4002300B589B00CA900910B996FF0EA
:1009F0000042CB601E4B06931E4B07930423CDE9A8
:100A000001321D4A089202466B460020FFF7CCFCDB
:100A100009B05DF814FB70B586B006464FF0FF30A4
:100A20000091CDE90101002015460C4604903246A4
:100A3000694604A8FFF7D4FF02460498211825B19F
:100A400008B1084600E020462860049800280DD030
:100A5000002A02DD0098884208D0081B0094CDE9E6
:100A600001043246694604A8FFF7BAFF06B070BD1C
:100A7000A1090008BF090008B90C000810B5141E30
:100A800073F1000408DA401C41F1000192185B4147
:100A90001A4301D120F0010010BD2DE9F04D92461E
:100AA0009B4611B1B1FA81F202E0B0FA80F2203235
:100AB0009046FFF744FF04460F4640EA0A0041EA29
:100AC0000B0153465A46084313D0114653EA01001E
:100AD00019D0C8F140025046FFF740FF05460E46C8
:100AE000504659464246FFF72AFF084305D00120E9
:100AF00004E020463946BDE8F08D0020054346EA73
:100B0000E0762C4337430A986305E40AA0EB08001B
:100B10000022FD0A44EA47540A3002D5002001466B
:100B2000E9E7010510196941DDE908450019694146
:100B3000BDE8F04DA2E72DE9F04D81EA030404F091
:100B4000004B21F0004514464FF0000A23F000410D
:100B500050EA050220D054EA01021DD0C5F30A571D
:100B60000246C5F31303C1F31300C1F30A5640F460
:100B7000801543F48013A7EB0608101BD64608F235
:100B8000FD3873EB050002D308F1010801E092186B
:100B90005B41B8F1000F03DA00200146BDE8F08D9B
:100BA00000204FF48011064684460EE0171B73EBBD
:100BB000050705D3121B63EB050306434CEA010C42
:100BC00049084FEA300092185B4150EA0107EDD125
:100BD00052EA030012D082EA040083EA05010843C6
:100BE00005D0101BAB4106D20122002306E00022F3
:100BF0004FF0004302E06FF0010253101AEB0600C1
:100C00004CEB085110EB0A0041EB0B01BDE8F04D35
:100C1000FFF734BF0EB540F2334202920022CDE915
:100C200000221346FFF739FF03B000BDC1F30A529B
:100C3000C1F3130140F2FF3341F480119A4202DA0A
:100C400000200146704740F233439A42A2F23342F9
:100C500002DC5242FFF782BEFFF771BE01F0004393
:100C600030B421F0004150EA010206D00A0DA2F58D
:100C70006072C1F31301002A02DC30BC002070470F
:100C8000440F44EAC104C100E01830BC00EBC2507C
:100C900000F017B8064C074D06E0E06840F001038D
:100CA00094E8070098471034AC42F6D3FFF744FAB3
:100CB000EC5B00080C5C0008C0B24FF4F05100F08F
:100CC00037B80029A8BF7047401C490008BF20F072
:100CD0000100704710B4B0FA80FC00FA0CF050EA42
:100CE000010404BF10BC704749B1CCF1200421FAC3
:100CF00004F411FA0CF118BF012121430843A3EBBE
:100D00000C01CB1D4FEA00614FEA102042BF0020CA
:100D100010BC704700EBC35010440029A4BF10BCA6
:100D20007047401C490008BF20F0010010BC70470C
:100D30007F2801D9002208E0064A02EB5002C007D2
:100D4000127800D1120902F00F02012090400840F1
:100D500070470000EC5A000870B58C1810F8015B61
:100D600015F0070301D110F8013B2A1106D110F844
:100D7000012B03E010F8016B01F8016B5B1EF9D148
:100D80002B0705D40023521E0DD401F8013BFAE7CE
:100D900010F8013BCB1A921C03E013F8015B01F839
:100DA000015B521EF9D5A142D8D3002070BD704717
:100DB00000BFFEE710B5012000F028FD04463CB15D
:100DC0003C48007820B93C4804700120394908703B
:100DD00064B138480078012808DB364800781E28BE
:100DE00004DC34480078401C32490870002C3DD1A6
:100DF00030480078002839DD2E4800781E2835DA82
:100E00002D480078012804D0022812D0032827D1C9
:100E10001FE02AA003F00CFA2B480078182804DA07
:100E200029480078401C28490870012002F0B0F9D8
:100E300017E026A003F0FCF923480078052804DD1C
:100E400021480078401E20490870002002F0A0F9D7
:100E500007E021A003F0ECF90F201B49087000E027
:100E600000BF00BF00201349087021E004BB1148F7
:100E700000781E281CDB10480078012804D00228C6
:100E800009D003280FD10AE016A003F0D1F9012000
:100E90001749087008E017A003F0CAF904E018A089
:100EA00003F0C6F900E000BF00BF00200149087050
:100EB00010BD0000D4090020D50900204B65793110
:100EC0005F53686F72740A00880900204B6579329D
:100ED0005F53686F72740A004B6579335F53686FB4
:100EE00072740A004B6579315F4C6F6E670A0000BF
:100EF000542C00204B6579325F4C6F6E670A0000FE
:100F00004B6579335F4C6F6E670A000070470000D5
:100F100030B58BB000200790089009900A90012509
:100F2000354B364A36A13EA003F082F907A80021CE
:100F300002910391CDE9041000912B022E4A0191F8
:100F40002E492FA000F0FCFD002843D1089A91B251
:100F5000079800F03FFAFA2000F004F90446002C4C
:100F60002FD0204601F0B4FA02282AD1204601F001
:100F700080F9062820D2DFE800F0030B0F13171BBF
:100F80002FA003F055F9002500203249C87017E062
:100F900031A003F04DF913E036A003F049F90FE05A
:100FA0003DA003F045F90BE043A003F041F907E051
:100FB0004AA003F03DF903E053A003F039F900BF64
:100FC00000BF2448C078401C2249C87007A800F020
:100FD000E3FC07E01F48C078401C1E49C87051A0C0
:100FE00003F026F91B48C078022801DD02F0A0F9C1
:100FF00028460BB030BD0000905B00084C5B000839
:10100000706572736F6E5F636865636B5F6465764E
:10101000696365266839736A584A5A477170530084
:1010200050524F49443A20257309415549463A20C8
:1010300025730944455649443A25730D0A000000BA
:10104000546970733A09C1ACBDD3B3C9B9A60D0ACE
:1010500000000000542C00205741524E3A09C1AC08
:10106000BDD3CAA7B0DCA3BAD0ADD2E9B4EDCEF3FC
:101070000D0A00005741524E3A09C1ACBDD3CAA770
:10108000B0DCA3BAB7C7B7A8B5C4636C69656E74A2
:1010900069640D0A000000005741524E3A09C1AC84
:1010A000BDD3CAA7B0DCA3BAB7FECEF1C6F7CAA7B4
:1010B000B0DC0D0A000000005741524E3A09C1ACA5
:1010C000BDD3CAA7B0DCA3BAD3C3BBA7C3FBBBF2D3
:1010D000C3DCC2EBB4EDCEF30D0A00005741524E13
:1010E0003A09C1ACBDD3CAA7B0DCA3BAB7C7B7A889
:1010F000C1B4BDD328B1C8C8E7746F6B656EB7C7FC
:10110000B7A8290D0A0000004552523A09C1ACBDEA
:10111000D3CAA7B0DCA3BACEB4D6AAB4EDCEF30D31
:101120000A0000005741524E3A094D5154545F5045
:1011300061636B6574436F6E6E65637420466169AD
:101140006C65640D0A00000010B54FF4807103480F
:10115000FFF72BF800200249088010BD542300201F
:10116000AA09002070B50546002400BF00F054F91C
:1011700080B90DA10E48FFF72FF8044654B13A216B
:101180002046FFF73BF8044614B1641C204670BDAE
:101190000020FCE7052003F059FE281EA5F10101FF
:1011A0008DB2E3D100BFF2E74950442C00000000AB
:1011B0005423002000B5A1B0FA2003F047FEFFF74A
:1011C000C3FF32A003F034F803E04FF4967003F04D
:1011D0003DFEC8222FA130A000F0D4F80028F4D1A1
:1011E0002FA003F025F803E04FF4967003F02EFED5
:1011F000C82228A12DA000F0C5F80028F4D12FA006
:1012000003F016F803E04FF4967003F01FFEC822B7
:1012100020A12DA000F0B6F80028F4D12EA003F0F4
:1012200007F8802101A8FEF7C0FF2DA32FA230A14F
:1012300001A803F00DF803E04FF4967003F006FEEA
:10124000C82231A101A800F09DF80028F4D130A0F7
:1012500002F0EEFF802101A8FEF7A7FF40F25B73CA
:101260002EA23AA101A802F0F3FF03E04FF4FA70B6
:1012700003F0ECFDC8223CA101A800F083F800288F
:10128000F4D13BA002F0D4FF21B000BD41540D0ABF
:10129000000000004F4B000041540D0A0D000000FB
:1012A00043574D4F44450D0A0000000041542B4365
:1012B000574D4F44453D310D0A00000041542B432A
:1012C00057444843500D0A0041542B435744484368
:1012D000503D312C310D0A0043574A41500D0A0050
:1012E0003132333435363738000000004E45540073
:1012F00041542B43574A41503D222573222C22252D
:1013000073220D0A00000000474F5420495000008E
:1013100043495053544152540D0A0000696F742DD3
:1013200030367A30306178646867666B32346E2E9E
:101330006D7174742E696F746875622E616C697951
:10134000756E63732E636F6D0000000041542B4374
:10135000495053544152543D22544350222C22258B
:1013600073222C25640D0A00434F4E4E4543540012
:101370004553503832363620496E6974204F4B0D34
:101380000A0000002DE9F04105460E4614462846A5
:10139000FEF73EFF87B23946284602F025FF0FE0F0
:1013A00000F03AF848B931460948FEF715FF20B178
:1013B000FFF7CAFE0020BDE8F0810A2003F046FDD9
:1013C000201EA4F101018CB2EAD10120F3E7000054
:1013D0005423002030B589B005460C46FFF7B4FE13
:1013E000224608A101A802F033FFC82209A101A8E2
:1013F000FFF7C8FF18B92146284602F0F5FE09B0EC
:1014000030BD000041542B43495053454E443D25C7
:10141000640D0A003E0000000A48008808B9012057
:1014200070470848008808490988884203D100208D
:1014300004490880F4E70348008803490880012034
:10144000EEE70000AA090020AC090020044900E0F2
:10145000521C11F8013B002BFAD1500870470000D4
:10146000EC08002010B50446062C22D2DFE804F078
:1014700003080D12171C0121084601F011FB18E0AA
:101480000121022001F00CFB13E00121042001F0F6
:1014900007FB0EE00121082001F002FB09E0012119
:1014A000102001F0FDFA04E00121202001F0F8FAFB
:1014B00000BF00BF10BD70B504460D46164620465D
:1014C000FFF7D0FF32462946204600F05AF8204662
:1014D00000F001F870BD3EB50446204602F04AFC1B
:1014E0000546062C33D2DFE804F0030B131B232A36
:1014F0004FF47A70ADF804004820ADF8000026E003
:1015000040F2E730ADF804004720ADF800001EE0DF
:101510004FF47A70ADF804004820ADF8000016E0F2
:1015200040F2E630ADF804004620ADF800000EE0D1
:101530005920ADF804004F20ADF8000007E040F25C
:10154000E730ADF804004720ADF8000000BF00BF51
:101550000020ADF80600ADF802008DF808006946DD
:10156000284602F0B5FB0121284602F01DF90122B0
:101570001146284602F03FFA0021284602F01AF9E7
:101580003EBDF8B506460C4615464FF4A06001F086
:10159000A7F826B1012E06D0022E0CD107E01C20A0
:1015A0008DF8000007E01D208DF8000003E01E20EC
:1015B0008DF8000000BF00BF8DF801408DF802508B
:1015C00001208DF80300684601F052F8F8BD2DE9BE
:1015D000F0410246002500260020002300240027B9
:1015E00091F803C00CF00F0591F803C00CF0100C3B
:1015F000BCF1000F03D091F802C04CEA050591F848
:1016000000C0BCF1000F31D0146800202BE04FF077
:10161000010C0CFA00F3B1F800C00CEA03069E427C
:1016200020D183004FF00F0C0CFA03F7BC4305FAEE
:1016300003FC4CEA040491F803C0BCF1280F06D166
:101640004FF0010C0CFA00FCC2F814C00AE091F84B
:1016500003C0BCF1480F05D14FF0010C0CFA00FC9F
:10166000C2F810C0401C0828D1D31460B1F800C0E3
:10167000BCF1FF0F34DD546800202EE000F1080CAF
:101680004FF0010808FA0CF3B1F800C00CEA0306A9
:101690009E4221D183004FF00F0C0CFA03F7BC439C
:1016A00005FA03FC4CEA040491F803C0BCF1280FCE
:1016B00005D100F1080C08FA0CF8C2F8148091F872
:1016C00003C0BCF1480F07D100F1080C4FF001082E
:1016D00008FA0CF8C2F81080401C0828CED35460D9
:1016E000BDE8F081F0B50A46002300240021002562
:1016F00000F00046B6F1004F02D11D4EF16901E045
:101700001B4E7168C0F3034583B200F44016B6F572
:10171000401F08D121F07061154E766826F0706682
:10172000134F7E6012E000F48016B6F5801F06D1DC
:10173000032606FA05F4A14341F0706106E0460D68
:10174000360103FA06F6B14341F0706122B1460D4D
:10175000360103FA06F6314300F00046B6F1004FB9
:1017600002D1034EF16101E0014E7160F0BD000055
:10177000000001400246002093680B400BB101209D
:1017800000E000207047416170470161704700BF71
:10179000FEE7000010B54FF4A06000F0A1FFFFF7D6
:1017A00055FE1749086003F02FFB0122002102209B
:1017B000FFF781FE4FF4E13002F070FC4FF4E130AE
:1017C00002F0BCFC01F0FCFD00F09CF800F070F8A9
:1017D00000F0DAFF002000F092FF002000F09DFFF3
:1017E000142001F0E1FE02E0052003F02FFB054983
:1017F000054801F00EFA0128F6D100F07BFF10BD7C
:101800007C090020D0090020C809002010B504463A
:1018100014B10120244908702348007860B34FF4C4
:1018200080512248FFF7A6FF58B14FF400511F48DE
:10183000FFF7A0FF28B14FF480411C48FFF79AFF43
:10184000D0B90020184908704FF480511748FFF7AD
:1018500091FF08B9012010BD4FF400511348FFF764
:1018600089FF08B90220F6E74FF480410F48FFF7DF
:1018700081FFB0B90320EEE74FF480510B48FFF72A
:1018800079FF01280DD141030848FFF773FF0128B4
:1018900007D181030548FFF76DFF012801D10249F7
:1018A00008700020D7E7000018000020000C01405D
:1018B00008B50121082001F013F94FF48050ADF86C
:1018C000000048208DF8030069460D48FFF77FFEB1
:1018D0004FF40050ADF8000048208DF80300694631
:1018E0000748FFF774FE4FF48040ADF80000482031
:1018F0008DF8030069460248FFF769FE08BD000045
:10190000000C014008B50121182001F0E9F84FF45E
:101910000050ADF8000010208DF8030003208DF872
:10192000020069461248FFF752FE4020ADF8000061
:1019300069461048FFF74BFE8020ADF8000069466D
:101940000C48FFF744FE4FF48070ADF80000694684
:101950000848FFF73CFE4FF40070ADF80000694600
:101960000448FFF734FE00200349086008BD00006A
:1019700000100140000C0140B401224210B5322099
:1019800003F064FA024800780249088010BD0000A4
:10199000880900203404004010B50446207B01284B
:1019A00002D1206802F068FC002020606060A06026
:1019B000207310BD0246002301230DE002F07F00DA
:1019C0000870D2092AB1087840F080000870491CDC
:1019D00001E0184670475B1C042BEFDD4FF0FF3031
:1019E000F8E7000010B5C0B004464FF480716846B7
:1019F000FEF7DBFB12A0008820804FF48071684660
:101A0000FEF7D3FB0F48C2880FA1684602F020FC06
:101A100069462046FEF7D4FB4FF480716846FEF716
:101A2000C4FB0DA1684602F013FC69462046FEF790
:101A3000C7FB2046FEF7ECFBC0B240B010BD000073
:101A40007B000000C809002022646973635F76226E
:101A50003A222564220000007D00000070B5044693
:101A60000E460025206898B901202073304602F008
:101A700031FC20602068E0B100206060A66003E0D7
:101A80000020216848556D1CA068A842F8D810E0D5
:101A90000220207303E00020216848556D1CA068D7
:101AA000A842F8D800206060A068B04201D20020AF
:101AB000206070BD2DE9FF5F07460D469046384611
:101AC000FEF7A6FB86B22846FEF7A2FB1FFA80FAB5
:101AD0004FF00009B01D02F0FDFB04461CB90120C7
:101AE00004B0BDE8F09FB11D2046FEF75EFB12A0DA
:101AF000016821608088A080324639462046FEF782
:101B00009CFB2846FEF784FB8346012000210091C0
:101B10005B462A46CDE90208019121460A2000F0E1
:101B20005FF910B94FF0000901E04FF001092046BC
:101B300002F0A2FB4846D3E724637273702F0000C3
:101B40002DE9FF4F83B082468B469146159C0025B8
:101B5000002002900F2701904846FEF759FB0FFA2C
:101B600080F8B9F1000F03D1012007B0BDE8F08F74
:101B700008F10200384487B2109808B145F0020518
:101B8000129878B145F004051298FEF741FBC0B2F7
:101B900002901398FEF73CFB01460298001D084492
:101BA000384487B2119820B1012804D0022808D106
:101BB00004E000BF07E045F00C0504E045F0140523
:101BC00001E00220D1E700BF149808B145F02405D8
:101BD000BAF1000F02D0BBF1000F01D10320C4E71E
:101BE00045F0C0055046FEF713FB06465846FEF783
:101BF0000FFB3044001D384487B239462046FFF7BA
:101C00002DFF206808B90420AFE739462068FEF7A9
:101C1000CCFA10216268501C606020688154D4E9BD
:101C20000023D118781FFFF7C5FE00B2019001987C
:101C3000002804DA2046FFF7AFFE052095E761682B
:101C400001980844606000216268501C6060206850
:101C5000815404216268501C6060206881544D21C9
:101C60006268501C60602068815451216268501C79
:101C700060602068815454216268501C6060206854
:101C800081546268501C606020688154042162683D
:101C9000501C6060206881546168481C6060206846
:101CA00045540698010A6268501C6060206881549F
:101CB0000698C1B26268501C606020688154C8F305
:101CC00007216268501C6060206881546268501C63
:101CD0006060206800F80280D4E90012881842464B
:101CE0004946FEF7AAFA60684044606005F00400C7
:101CF000B8B30026139808B938A013901298FEF7CD
:101D000087FA86B2310A6268501C6060206881548C
:101D10006268501C606020688654D4E900128818FC
:101D200032461299FEF789FA606830446060139871
:101D3000FEF76EFA86B2310A6268501C6060206855
:101D400081546268501C606020688654D4E9001297
:101D5000881832461399FEF770FA60683044606064
:101D600000BF05F08000C8B15046FEF751FA86B2B8
:101D7000310A6268501C6060206881546268501C9F
:101D8000606020688654D4E90012881832465146B3
:101D9000FEF753FA60683044606000BF05F0400011
:101DA000C8B15846FEF734FA86B2310A6268501C50
:101DB0006060206881546268501C606020688654AE
:101DC000D4E90012881832465946FEF736FA6068A0
:101DD0003044606000BF0020C7E600000000000043
:101DE0002DE9FF4F83B0834690469946139C002609
:101DF00000250020029001900027BBF1000F03D1C5
:101E0000012007B0BDE8F08F00250AE00498405D8E
:101E1000232803D00498405D2B2801D10220F0E74D
:101E20006D1C0498405D0028F0D147F030071198F0
:101E300008B147F0010705EB0900861C109820B196
:101E4000012804D002280AD105E000BF09E047F0CC
:101E50000207B61C05E047F00407B61C01E00320AA
:101E6000CFE700BF98F80000022822D14FF0000A07
:101E700000BF50460AF1010A18F800007D28F8D189
:101E8000AAF1030A0AF1070002900298A9EB000ADE
:101E9000F01CA0EB0A012046FFF7E0FD206808B91E
:101EA0000420AEE7F21CA2EB0A012068FEF77DF9E0
:101EB0000BE0F11C2046FFF7D1FD206808B9042093
:101EC0009FE7F11C2068FEF770F96168481C6060AC
:101ED00020684754D4E9000281183046FFF76AFDB4
:101EE00001900198002804DA2046FFF755FD0520EF
:101EF00087E76168019808446060C5F3072162685C
:101F0000501C6060206881546268501C60602068CA
:101F10008554D4E9001288182A460499FEF78DF9F1
:101F2000606828446060109860B14FEA1B216268C5
:101F3000501C6060206881546268501C606020689A
:101F400000F802B0B8F1000F19D098F8000002288C
:101F50000BD1D4E9001288184146029AFEF70CF919
:101F6000616802980844606009E0D4E900128818AA
:101F70004A464146FEF700F9606848446060002028
:101F80003FE770B505460C4604212046FFF766FD85
:101F9000206808B9012070BD40216268501C606053
:101FA0002068815402216268501C6060206881545E
:101FB00029126268501C6060206881546268501C5D
:101FC0006060206885540020E5E770B505460C4642
:101FD00004212046FFF742FD206808B9012070BDAA
:101FE00070216268501C6060206881540221626820
:101FF000501C60602068815429126268501C606027
:10200000206881546268501C6060206885540020FC
:10201000E5E770B505460C4604212046FFF71EFD96
:10202000206808B9012070BD50216268501C6060B2
:102030002068815402216268501C606020688154CD
:1020400029126268501C6060206881546268501CCC
:102050006060206885540020E5E770B505460C46B1
:1020600004212046FFF7FAFC206808B9012070BD62
:1020700062216268501C606020688154022162689D
:10208000501C60602068815429126268501C606096
:10209000206881546268501C60602068855400206C
:1020A000E5E72DE9FF5F8046174699460E9C00261E
:1020B000B246B3460025B8F1000F03D1012004B0A9
:1020C000BDE8F09F0BE057F8250008B90220F6E7BD
:1020D00057F82500FEF79CF80644681CC5B24D452C
:1020E000F1DB09EB4900801C00EB060A0AF105014F
:1020F0002046FFF7B3FC206808B90320DFE7822100
:102100006268501C606020688154D4E90002811824
:102110005046FFF74FFC0FFA80FBBBF1000F04DACB
:102120002046FFF739FC0420C9E760685844606026
:102130004FEA18216268501C606020688154626810
:10214000501C6060206800F80280002524E057F8E9
:102150002500FEF75DF80646C6F307216268501CAD
:102160006060206881546268501C606020688654FA
:10217000D4E90023D01857F825103246FEF75DF851
:102180006068304460600198C1B26268501C606051
:1021900020688154681CC5B24D45D8DB00208EE70D
:1021A000F0B504460D4626460123002010600021AC
:1021B00014E0775C07F07F07106807FB03001060EE
:1021C000705C00F0800008B9481CF0BDDB01B3F57D
:1021D000001F02D36FF00100F7E7491CA942E8DBBA
:1021E0004FF0FF30F1E72DE9F84380460C461546E5
:1021F0001E462F2108F10600FEF700F807460020D2
:10220000009017B90120BDE8F8837F1C6A460421BD
:1022100008F10100FFF7C4FF252002F05BF8206001
:10222000206808B90220EEE725212068FDF7BDFFF0
:10223000242239462068FDF79FFF243700982C3868
:1022400030803188481C02F045F82860286820B9A1
:10225000206802F011F80320D5E73288511C286865
:10226000FDF7A3FF328839462868FDF785FF002077
:10227000C9E701464878022801D0012070478878D4
:1022800010B18878012801D1C878F7E7FF20F5E779
:102290002DE9FC5F81460D4614461E46DDE90C8B98
:1022A00099F8000000F00F0A002001900AF00800E1
:1022B0000090CAF341008BF8000001AA042109F143
:1022C0000100FFF76DFF4844471C0198022802D324
:1022D0000AF0010010B1FF20BDE8FC9F7878397842
:1022E00040EA012020802088801C0199884201D981
:1022F000FF20F1E754A1B81CFDF76EFF08B10F20D5
:10230000EAE79BF8000020B101283DD0022877D1F0
:102310003BE0009808B1FF20DEE72188481C01F06F
:10232000D9FF2860286808B9FF20D5E72288511C0A
:102330002868FDF73AFF2288B91C2868FDF71CFFC2
:102340000198801E2188401AA8F80000B8F80010F3
:10235000481C01F0BFFF3060306820B9286801F0E8
:102360008BFFFF20B8E7B8F80020511C3068FDF75C
:102370001CFFB8F80020B4F800C0BB1C0CEB030134
:102380003068FDF7F9FE4FE000BF2088801C0199FE
:10239000884201D9FF209FE72088C01C395C208833
:1023A000801C385C41EA00210E9801800E9808B923
:1023B000FF2091E72188481C01F08CFF28602868E5
:1023C00008B9FF2088E72288511C2868FDF7EDFE38
:1023D0002288B91C2868FDF7CFFE0198001F2188CC
:1023E000401AA8F80000B8F80010481C01F072FF6D
:1023F0003060306828B9286801F03EFFFF206BE7A5
:1024000010E0B8F80020511C3068FDF7CEFEB8F897
:102410000020B4F800C03B1D0CEB03013068FDF751
:10242000ABFE01E0FF2057E700BF2B212846FDF758
:10243000E5FE20B923212846FDF7E0FE08B1FF2084
:102440004AE7002048E7000024637265710000003D
:1024500001464878022801D001207047887820B9C9
:10246000C8780A2801D10020F7E70120F5E70146E6
:102470004878022801D001207047887820B9C878B0
:102480000A2801D10020F7E70120F5E70146487846
:10249000022801D001207047887820B9C8780A281E
:1024A00001D10020F7E70120F5E702465078022825
:1024B00001D0012070479078B0EB112F05D1D07872
:1024C000CBB2984201D10020F4E70120F2E70000EE
:1024D000F8B50446FF2720780511012D01DB0E2DEC
:1024E00001DD3846F8BD032D24D1002000906A4656
:1024F0000421601CFFF754FE2044461C009802286B
:1025000003D3207800F0010008B1FF20EAE77078DB
:10251000317840EA0120801C0099884201D9FF20CF
:10252000E0E706A1B01CFDF757FE08B10F2700E059
:10253000032700E02F463846D4E700002463726585
:10254000710000000146FF208A78A2B9CA78142AD7
:1025500011D10A7932B1012A05D0022A04D0802A89
:1025600006D103E000BF00BF002003E0012001E02E
:10257000022000BF00BF7047014601208A781AB9C7
:10258000CA781E2A00D10020704700BFFEE7000075
:1025900010B5A0B0044680216846FDF706FE11A0E4
:1025A0000088208080216846FDF7FFFD0E480278F4
:1025B0000EA1684601F04CFE69462046FDF700FE7C
:1025C00080216846FDF7F1FD0DA1684601F040FE4F
:1025D00069462046FDF7F4FD2046FDF719FEC0B21E
:1025E00020B010BD7B000000D00900202263686588
:1025F000636B5F646576696365223A222564220015
:102600007D00000010B5A0B0044680216846FDF7AB
:10261000CCFD11A00088208080216846FDF7C5FD13
:1026200001220EA1684601F013FE69462046FDF71F
:10263000C7FD80216846FDF7B8FD0BA1684601F093
:1026400007FE69462046FDF7BBFD2046FDF7E0FD8D
:10265000C0B220B010BD00007B0000002274696D84
:1026600065223A22256422007D00000070470000A8
:1026700070B5002100230F22C47804B3154C2468E0
:1026800004F4E064C4F5E064210AC1F10403CA4023
:10269000447804FA03F184781440214309010E4C74
:1026A0000678A155047804F01F050124AC40057894
:1026B0006D11AD0005F1E025C5F8004109E0047891
:1026C00004F01F050124AC40044D0678761145F84E
:1026D000264070BD0CED00E000E400E080E100E089
:1026E00002490143024A1160704700000000FA05E8
:1026F0000CED00E010B5002000F025F810BD10B57D
:1027000004461CB90021A62000F090F9012C03D149
:102710000021A72000F08AF910BD10B504463CB98D
:102720000021C82000F082F90021A12000F07EF9EC
:10273000012C07D10021C02000F078F90021A02051
:1027400000F074F910BD70B50646002419E004F1DC
:10275000B001C8B2002100F069F90021084600F07C
:1027600065F90021102000F061F9002505E0012144
:10277000304600F05BF9681CC5B2822DF7DB601CA7
:10278000C4B2082CE3DB70BD08B50121042000F0C1
:10279000A7F93020ADF8000010208DF803000320C9
:1027A0008DF8020069464748FEF711FF3021454881
:1027B000FEF7EBFF0121082000F092F90320ADF8AD
:1027C000000010208DF8030003208DF802006946F8
:1027D0003C48FEF7FCFE03213A48FEF7D6FF0021F5
:1027E000AE2000F023F90021084600F01FF9002177
:1027F000102000F01BF90021402000F017F9002103
:10280000812000F013F90021CF2000F00FF9002102
:10281000A12000F00BF90021C82000F007F90021E9
:10282000A62000F003F90021A82000F0FFF8002105
:102830003F2000F0FBF80021D32000F0F7F8002142
:10284000084600F0F3F80021D52000F0EFF8002151
:10285000802000F0EBF80021D92000F0E7F80021FB
:10286000F12000F0E3F80021DA2000F0DFF8002189
:10287000122000F0DBF80021DB2000F0D7F8002167
:10288000402000F0D3F80021202000F0CFF80021F4
:10289000022000F0CBF800218D2000F0C7F80021C5
:1028A000142000F0C3F80021A42000F0BFF800219C
:1028B000A62000F0BBF80021AF2000F0B7F8FFF72A
:1028C00019FF08BD000801402DE9F047074688467A
:1028D0001646002584E03078A02845DD00253CE040
:1028E000702F04DD002708F1020000F0FF083078A7
:1028F0003E4911F8151088422ED17078012101EB64
:1029000045013A4A515C884226D14146384600F09A
:1029100077F8002407E004EB4511354A505C0121AB
:1029200000F084F8641C102CF5D308F10100C1B24A
:10293000384600F065F8002408E004EB451110313A
:102940002B4A505C012100F071F8641C102CF4D368
:1029500007F11000C7B204E06D1C264800688542EC
:10296000BED300BFB61C3BE07A2F04DD002708F180
:10297000020000F0FF0831781F48FDF73FFC814658
:10298000B9F1000F2BD04146384600F039F8002449
:102990000AE099F80010203904EB0111174A505C45
:1029A000012100F043F8641C082CF2D308F1010067
:1029B000C1B2384600F024F800240BE099F800106A
:1029C000203904EB011108310C4A505C012100F060
:1029D0002DF8641C082CF1D307F10800C7B2761C4F
:1029E000307800287FF477AFBDE8F087EC0800204E
:1029F0000C0600207C0900201B0900201C00002080
:102A000070B504460D4605F1B001C8B2002100F0D2
:102A10000DF8102141EA1410002100F007F804F02D
:102A20000F00002100F002F870BD000070B50446F0
:102A30000E4626B102211848FEF7A7FE03E0022148
:102A40001548FEF7A0FE01211348FEF79CFE002565
:102A500017E010211048FEF796FE04F0800020B128
:102A600020210D48FEF791FE03E020210A48FEF7E1
:102A70008AFE10210848FEF788FE6006040E681CD6
:102A8000C5B2082DE5DB01210348FEF77EFE0221D9
:102A90000148FEF77AFE70BD000801407047000053
:102AA00029B1064AD2690243044BDA6104E0034AC1
:102AB000D2698243014BDA61704700000010024086
:102AC00029B1064A12690243044B1A6104E0034A21
:102AD00012698243014B1A617047000000100240E6
:102AE00029B1064A92690243044B9A6104E0034A01
:102AF00092698243014B9A617047000000100240C6
:102B000029B1064AD2680243044BDA6004E0034A62
:102B1000D2688243014BDA60704700000010024027
:102B200030B500210022002400232D4D6D6805F0F2
:102B30000C0121B1042905D0082923D105E0294D34
:102B4000056022E0274D05601FE0254D6D6805F406
:102B50007012234D6D6805F48034022505EB924216
:102B60001CB9214D554305600BE01D4D6D6805F402
:102B700000351DB11C4D5543056002E0194D55430C
:102B8000056002E0174D056000BF00BF144D6D6881
:102B900005F0F0010909154D6B5C0568DD404560E5
:102BA0000F4D6D6805F4E061090A104D6B5C4568D6
:102BB000DD4085600A4D6D6805F46051C90A0B4D12
:102BC0006B5C4568DD40C560054D6D6805F44041AE
:102BD000890B074D6B5CC568B5FBF3F5056130BD2E
:102BE0000010024000127A0000093D009609002002
:102BF000A609002000B5022202490348006800F03F
:102C0000F5FB00BDCE09002080090020014601200F
:102C1000704770B505460C460120E070FFF7EAFFEB
:102C200000202070012070BD70B58CB006460020D9
:102C3000089009900A900B900790069005900490D8
:102C40000024039000253046FFF742FC0446E01EB6
:102C50000D2870D2DFE800F028707B93ADCDB5CDA4
:102C6000C1CDCDCD070004AB07AA06A93046FFF7BA
:102C7000BAFA0546BDB9BDF810306BA0DDE9061201
:102C800001F0D6FA08AADDE90601FEF713FF50B9F4
:102C90006EA001F0CDFA099A91B20898FEF79AFB5E
:102CA00008A8FEF779FEA7E06E4803A904AA07ABBF
:102CB000CDE90021029005AA06A93046FFF7E8FAFF
:102CC0000546002D36D1BDF810000090BDF8142047
:102CD00065A0DDE9061301F0ABFA9DF80C000128B0
:102CE00002D0022824D111E008A95E480088FFF72D
:102CF00048F950B96BA001F09BFA099A91B2089873
:102D0000FEF768FB08A8FEF747FE12E008A9554841
:102D10000088FFF77EF950B968A001F089FA099A96
:102D200091B20898FEF756FB08A8FEF735FE00E0C2
:102D300000BF00BF60E05CE03046FFF789FB10B9E0
:102D400064A001F075FA3C206A49087054E03046EE
:102D5000FFF79CFB90B968A001F06AFA08A90A2065
:102D6000FFF77BF950B96AA001F062FA099A91B2B3
:102D70000898FEF72FFB08A8FEF70EFE3CE0394846
:102D800001883046FFF791FB90B967A001F050FA37
:102D900008A90A20FFF719F950B969A001F048FA0B
:102DA000099A91B20898FEF715FB08A8FEF7F4FD02
:102DB00022E03046FFF75BFB10B968A001F038FA5B
:102DC0001AE03046FFF7BEFB18B96AA001F030FAEE
:102DD00002E06FA001F02CFA0EE03046FFF7CCFBCA
:102DE00018B972A001F024FA02E077A001F020FAED
:102DF00002E04FF0FF3500BF00BFFEF7A5F9681CE9
:102E000008B90CB070BD079810B1079802F0C8F867
:102E10000F2C01D0032C05D1069801F02DFA07984C
:102E200001F02AFA00BFECE7636D6469643A20257B
:102E3000732C207265713A2025732C207265715FA6
:102E40006C656E3A2025640D0A00000054697073A9
:102E50003A0953656E6420436D64526573700D0AC0
:102E600000000000C6090020746F7069633A2025D5
:102E7000732C20746F7069635F6C656E3A202564F3
:102E80002C207061796C6F61643A2025732C20705E
:102E900061796C6F61645F6C656E3A2025640D0A20
:102EA00000000000546970733A0953656E64205045
:102EB00075626C69736841636B0D0A0054697073C5
:102EC0003A0953656E64205075626C697368526587
:102ED000630D0A00546970733A094D5154542050DF
:102EE00075626C6973682053656E64204F4B0D0AE0
:102EF00000000000C4090020546970733A0952654B
:102F000076205075626C6973685265630D0A000023
:102F1000546970733A0953656E64205075626C6928
:102F2000736852656C0D0A00546970733A095265F2
:102F300076205075626C69736852656C0D0A0000EA
:102F4000546970733A0953656E64205075626C69F8
:102F50007368436F6D700D0A000000005469707350
:102F60003A09526576205075626C697368436F6DDB
:102F7000700D0A00546970733A094D51545420532E
:102F80007562736372696265204F4B0D0A00000021
:102F9000546970733A094D515454205375627363E8
:102FA00072696265204572720D0A0000546970737F
:102FB0003A094D51545420556E53756273637269CA
:102FC0006265204F4B0D0A00546970733A094D51E8
:102FD000545420556E53756273637269626520455F
:102FE00072720D0A000000007047000030B5C9B0D1
:102FF00004460020459046904790489000254FF4A5
:10300000807105A8FDF7D1F8012C06D0022C09D05B
:10301000032C0CD0042C14D10EE005A8FEF7E2FC22
:1030200005460FE005A8FFF7EDFA05460AE005A8FA
:10303000FFF7AEFA054605E005A8FFF7A9FA054631
:1030400000E000BF00BFCDB145A801210022CDE9BD
:1030500000122B4605AACDE9021009A10A20FEF7AD
:10306000BFFE40B9469A91B24598FEF7B3F945A81C
:10307000FEF792FC02E00AA001F0DAF849B030BD98
:103080002F62726F6164636173742F6839736A5859
:103090004A5A477170532F746573743200000000F0
:1030A0005741524E0D0A000010B500F001F810BD56
:1030B0000CB50020019000903348006840F4803047
:1030C0003149086000BF3048006800F400300090CB
:1030D0000198401C0190009818B90198B0F5A06FB4
:1030E000F1D12948006800F4003010B101200090AF
:1030F00001E0002000900098012843D12348006897
:1031000040F01000214908600846006820F00300E4
:1031100008600846006840F0020008601A484068ED
:10312000194948600846406848600846406840F4CD
:10313000806048600846406820F47C10486008467B
:10314000406840F4E81048600846006840F080702D
:10315000086000BF0C48006800F000700028F9D03B
:103160000948406820F00300074948600846406865
:1031700040F00200486000BF0348406800F00C00C7
:103180000828F9D10CBD00000010024000200240C8
:1031900010B5044614B1012C0ED106E015200749E4
:1031A0000880642001F052FE06E0132003490880E5
:1031B000642001F04BFE00BF00BF10BD4004004082
:1031C00010B501234FF47A720D490E4802F086FBC8
:1031D0000123C8220C490D4802F080FB012340F670
:1031E000C4120B490B4802F079FB064802F0A6FB1B
:1031F000064802F0A3FB074802F0A0FB10BD000048
:1032000099570008F8110020A15700080812002063
:10321000C158000818120020F0B585B004460D46CC
:1032200000260020019002900390049006E054F8DC
:1032300026101FA000F0FCFF701CC6B2AE42F6DBE9
:1032400001A82B462246022100901420FEF729FFF8
:1032500000282BD1029A91B20198FEF7BBF84FF4E7
:10326000FA70FDF77FFF07463846FFF731F9092866
:103270000AD115A000F0DCFF01A8FEF78DFB0020AD
:103280001849C87005B0F0BD17A000F0D1FF01A823
:10329000FEF782FB1348C078401CC0B21149C870C9
:1032A000022801DD00F044F80120EBE70120E9E706
:1032B00053756273637269626520546F7069633A13
:1032C0002025730D0A000000546970733A094D51AE
:1032D000545420537562736372696265204F4B0DBD
:1032E0000A000000542C0020546970733A094D51B3
:1032F000545420537562736372696265204572721B
:103300000D0A0000042808D14FF0E021096941F0BE
:1033100004014FF0E022116107E04FF0E02109695C
:1033200021F004014FF0E022116170477047000066
:10333000012080F3138800BF00BF0748006800F435
:10334000E06006490843001D03490860BFF34F8F42
:1033500000BF00BFFEE700000CED00E00000FA0532
:1033600010B51348006840F0010011490860084694
:103370004068104908400E494860084600680E49F8
:1033800008400B4908600846006820F48020086067
:103390000846406820F4FE0048604FF41F00886033
:1033A000FFF782FE4FF000600449086010BD000086
:1033B000001002400000FFF8FFFFF6FE08ED00E0FD
:1033C00010B501210820FFF78BFB01210846FFF70C
:1033D00087FB01210348FEF785F901210248FEF72A
:1033E00081F910BD000430000002300030B5034602
:1033F0000D480488B3F1006F01D2012030BD4FF0B9
:10340000006000EB8420984201D20220F6E703E03E
:1034100018780870491C5B1C101EA2F10105AAB2A5
:10342000F6D100BFEAE70000E0F7FF1F2DE9F84FF3
:103430008046894616465648B0F800A0A8F1006BB1
:103440004FEADB25CBF30A0000900098C0F5006737
:10345000B8F1006F02D20120BDE8F88F4FF0006094
:1034600000EB8A20404501D20120F5E749484A494E
:1034700048604A484860BE4200DC37467DE0484824
:1034800002F022FB08B10220E6E74FF0006101EBF9
:10349000C5200A144349FFF7A9FF414802F014FB75
:1034A00008B10220D8E73C48006940F002003A49E0
:1034B00008614FF0006000EBC520486108460069D4
:1034C00040F040000861364802F0FEFA08B10220E0
:1034D000C2E73148006941F6FD7108402E49086194
:1034E000002007E019F80020009901442D4B5A54A0
:1034F000411C88B2B842F5DB00242AE0284802F0DB
:10350000E3FA08B10220A7E72348006940F0010070
:1035100021490861234810F81400012101EB4401FE
:10352000204A515C40EA01204FF0006101EBC521C7
:1035300021F814001A4802F0C7FA08B102208BE7FC
:103540001548006941F6FE71084013490861601C86
:1035500084B2B4F5806FD1DBB74200D10EE0B9443C
:103560006D1C00200090F01B86B2B6F5006F02DDE6
:103570004FF4006000E03046074680E700BF064891
:10358000006940F0800004490861002064E7000001
:10359000E0F7FF1F2301674500200240AB89EFCD14
:1035A000888888002812002010B588B004460121C0
:1035B0000220FFF775FA01210D20FFF791FAC020D4
:1035C000ADF81C0018208DF81F0003208DF81E0098
:1035D00007A94F48FDF7FBFF0320ADF81C0018209A
:1035E0008DF81F0003208DF81E0007A94948FDF73C
:1035F000EEFF494800F0FAF8C720ADF8140041F694
:103600001F40ADF810000020ADF81600ADF8120014
:103610008DF8180004A9404800F05AFB7020ADF85E
:1036200000000120ADF802000002ADF80C000020FF
:10363000ADF808006020ADF800000020ADF80E00E5
:103640000820ADF80A000420ADF8040069463248AD
:1036500000F0DAF90821304800F022FA6020ADF8D5
:1036600000000020ADF80E000820ADF80A0004208C
:10367000ADF804006946284800F01CFA08212648E5
:1036800000F06AFA6020ADF800000020ADF80E00EE
:103690000820ADF80A000420ADF8040069461E4871
:1036A00000F068FA08211C4800F0B4FA6020ADF878
:1036B00000000020ADF80E000820ADF80A0004203C
:1036C000ADF804006946144800F0AEFA082112482B
:1036D00000F0E8FA0121104800F078F801210E48C6
:1036E00000F056F801210C4800F064F806210A4861
:1036F00000F0E5FA1221084800F0E3FA1421064828
:1037000000F0E1FA1621044800F0DFFA08B010BD1D
:1037100000080140000C01400004004010B50121E8
:10372000174800F057F950B316480068401C154977
:10373000086002F02BF9134800681921B0FBF1F280
:1037400001FB120010B900200F4908700D480068F5
:103750004FF47A71B0FBF1F201FB120058B900206E
:103760000849086009480078002804DD0748007807
:10377000401E064908700121014800F018F810BDEC
:1037800000080040E0090020E4090020C4090020EE
:1037900021B1028842F08002028004E002884FF6E4
:1037A0007F731A4002807047CA4302827047CA433F
:1037B0000282704721B1028842F00102028004E0D7
:1037C00002884FF6FE731A400280704731B1B0F89C
:1037D000442042F40042A0F8442005E0B0F8442020
:1037E000C2F30E02A0F844207047000010B5044652
:1037F0006848844208D10121C014FFF781F90021F3
:10380000E014FFF77DF9C4E0B4F1804F08D1012145
:103810000846FFF755F900210120FFF751F9B8E0FC
:103820005D48844208D101210220FFF749F90021B7
:103830000220FFF745F9ACE05848844208D1012145
:103840000420FFF73DF900210420FFF739F9A0E03B
:103850005348844208D101210820FFF731F90021A3
:103860000820FFF72DF994E04E48844208D1012149
:103870001020FFF725F900211020FFF721F988E03B
:103880004948844208D101212020FFF719F900217D
:103890002020FFF715F97CE04448844208D101213B
:1038A0004014FFF72DF900216014FFF729F970E0AB
:1038B0003F48844209D10121C804FFF721F90021C2
:1038C0004FF40020FFF71CF963E03A48844209D125
:1038D00001210805FFF714F900214FF48010FFF7CC
:1038E0000FF956E03448844209D101214805FFF719
:1038F00007F900214FF40010FFF702F949E02F48C3
:10390000844208D101214020FFF7DAF8002140204D
:10391000FFF7D6F83DE02A48844208D101218020F3
:10392000FFF7CEF800218020FFF7CAF831E02548E4
:10393000844208D101218015FFF7C2F80021A015AB
:10394000FFF7BEF825E02048844209D10121080490
:10395000FFF7D6F800214FF48030FFF7D1F818E0D8
:103960001A48844209D101214804FFF7C9F800210F
:103970004FF40030FFF7C4F80BE01548844208D13B
:1039800001218804FFF7BCF800214FF48020FFF7E5
:10399000B7F810BD002C01400004004000080040B2
:1039A000000C0040001000400014004000340140B2
:1039B000004C0140005001400054014000180040FC
:1039C000001C004000200040004001400044014035
:1039D0000048014030B50246002000230024158A2B
:1039E00005EA0103958905EA010413B10CB1012030
:1039F00000E0002030BD1AB183890B43838102E0CF
:103A000083898B438381704770B500240022002393
:103A1000058C4FF6FE7635400584028C8388048B36
:103A20004FF68F752C40B51E2C400D882C43751E0B
:103A30002A400D892A434D882A43144DA8420BD0B1
:103A4000134DA84208D0134DA84205D0124DA842EC
:103A500002D0124DA84213D14FF6F7752A404D8976
:103A60002A434FF6FB752A408D882A434FF6FF659F
:103A70002B404FF6FF552B408D892B43CD892B438F
:103A800083800483CD888586028470BD002C01402C
:103A90000034014000400140004401400048014022
:103AA0000A460021018B4FF6F77319401143018339
:103AB0007047000070B5002400220023058C4FF6EB
:103AC000EF7635400584028C8388048B48F6FF75B9
:103AD0002C404FF6FF452C400D884FF6FF7606EA46
:103AE00005252C434FF6DF752A400D8906EA05159A
:103AF0002A434D8806EA05152A43154DA84202D0EF
:103B0000144DA8421DD14FF67F752A404D894FF6BE
:103B1000FF7606EA05152A434FF6BF752A408D88C1
:103B200006EA05152A434FF6FF352B404FF2FF7585
:103B30002B408D8906EA85052B43CD8906EA85054C
:103B40002B4383800483CD880587028470BD0000E9
:103B5000002C0140003401400A460021018B4FF245
:103B6000FF7319404FF6FF7303EA022319430183E1
:103B70007047000070B5002400220023058C4FF62A
:103B8000FF6635400584028C8388848B4FF68F75E1
:103B90002C404FF6FC752C400D882C434FF6FF55FA
:103BA0002A400D894FF6FF7606EA05252A434D88FF
:103BB00006EA05252A43154DA84202D0144DA84215
:103BC0001DD14FF2FF752A404D894FF6FF7606EA68
:103BD00005252A434FF6FF352A408D8806EA05253C
:103BE0002A434EF6FF752B404DF6FF752B408D890D
:103BF00006EA05152B43CD8906EA05152B4383807C
:103C00008483CD888587028470BD0000002C01402C
:103C1000003401400A460021818B4FF6F7731940AA
:103C2000114381837047000070B5002200230024F7
:103C3000058C4EF6FF7635400584038C8488828B94
:103C400048F6FF752A404FF6FF452A400D884FF68B
:103C5000FF7606EA05252A434DF6FF752B400D89B0
:103C600006EA05352B434D8806EA05352B430B4DF7
:103C7000A84202D00A4DA84208D14BF6FF752C404D
:103C80008D894FF6FF7606EA85152C438480828362
:103C9000CD88A0F84050038470BD0000002C014086
:103CA000003401400A460021818B4FF2FF73194016
:103CB0004FF6FF7303EA022319438183704781861D
:103CC00070470187704781877047A0F840107047A0
:103CD000002202881D4B98420ED01D4B98420BD0FB
:103CE000B0F1804F08D01B4B984205D01A4B984238
:103CF00002D01A4B984204D14FF68F731A404B886A
:103D00001A43174B984207D0164B984204D04FF6EF
:103D1000FF431A40CB881A4302808B8883850B8827
:103D200003850A4B98420BD0094B984208D00E4BA2
:103D3000984205D00D4B984202D00D4B984201D1CC
:103D40000B7A03860123838270470000002C014018
:103D5000003401400004004000080040000C004016
:103D600000100040001400400040014000440140A9
:103D7000004801400146022901D1024800BF00BFAE
:103D8000704700000008004010B540F225511D4862
:103D900000F086F810B31B4800F03EF9C4B21A4890
:103DA000008800F40040C8B91748008800F480403B
:103DB00060B10A2C03D000201349088020E012488B
:103DC000008840F400401049088019E00D2C06D10D
:103DD0000D48008840F480400B49088010E00A48F4
:103DE0000088C0F30D0009490C5407480088401CA6
:103DF0000549088008460088C72801DD00200880A2
:103E000010BD00000038014094090020281A00204D
:103E100010B540F225510E4800F042F8B0B10D48FF
:103E20000088FF2802D900200A4908800848001DA0
:103E30000088C1B2074802880088401C054B1880E2
:103E4000054881542021024800F008F810BD000008
:103E500000480040AA0900205423002001F4007209
:103E6000B2F5007F00D100BFCA430280704721B184
:103E7000828942F40052828104E082894DF6FF7308
:103E80001A408281704702460020B1F5007F00D1C0
:103E900000BF13880B400BB1012000E000207047E9
:103EA00070B50246002400230025002040F66A1663
:103EB000B14200D100BFC1F3421501F01F0301263A
:103EC00006FA03F3012D02D19689334006E0022D54
:103ED00002D1168A334001E0968A33400C12012643
:103EE00006FA04F41688344013B10CB1012000E046
:103EF000002070BDF0B503460024002600250020F8
:103F000040F66A17B94200D100BF1846C1F3421407
:103F100001F01F06012707FA06F5012C01D10C302C
:103F200004E0022C01D1103000E014301AB107680F
:103F30002F43076002E00768AF430760F0BD000051
:103F40002DE9F04786B005460E460024A24600BF84
:103F5000A1460027B08900B100BF2F462C8A4CF63D
:103F6000FF700440F08804432C82AC894EF6F310B5
:103F70000440B08831890843718908430443AC8107
:103F8000AC8A4FF6FF400440B0890443AC8201A8DC
:103F9000FEF7C6FD1F48874202D1DDF810A001E000
:103FA000DDF80CA0A88900F4004040B10AEBCA007B
:103FB00000EB0A1031684900B0FBF1F807E00AEBAA
:103FC000CA0000EB0A1031688900B0FBF1F86420E8
:103FD000B8FBF0F004012009642101FB1089A889D5
:103FE00000F4004040B1322000EBC900B0FBF1F01A
:103FF00000F00700044308E0322000EB09106421C0
:10400000B0FBF1F000F00F0004432C8106B0BDE8D6
:10401000F08700000038014001468888C0F308009E
:104020007047C1F3080282807047000010B50D4848
:10403000007890B10B480078012802D0022808D1FE
:1040400003E00120FEF7D2FF03E00220FEF7CEFFDF
:1040500000BF00BF002003490870FDF78FFC01205E
:1040600010BD0000542C002000B58DB00648027829
:1040700006A1684600F0ECF86A4600210846FEF703
:1040800023FC01200DB000BD8809002053473930C2
:10409000202020256420000000BFFEE710B586B078
:1040A0000446012144F20400FEF71AFD4FF40070AB
:1040B000ADF8140003208DF8160018208DF81700B5
:1040C00005A91C48FDF783FA4FF48060ADF8140091
:1040D00004208DF8170005A91648FDF778FA252069
:1040E0008DF8000003208DF801008DF802000120FA
:1040F0008DF803006846FEF7BBFA01940020ADF886
:104100000800ADF80A00ADF80C00ADF810000C2066
:10411000ADF80E0001A90848FFF712FF012240F296
:1041200025510548FFF7E6FE01210348FFF79FFEF2
:1041300006B010BD000801400038014010B586B03F
:10414000044601210820FEF7CBFC01218804FEF77C
:10415000A7FC18208DF817004FF48060ADF814000C
:1041600003208DF8160005A91D48FDF730FA04203C
:104170008DF817004002ADF8140003208DF81600EA
:1041800005A91748FDF723FA01940020ADF81000A7
:104190000C20ADF80E000020ADF80C00ADF80A00C0
:1041A000ADF8080001A90F48FFF7CAFE01210D482C
:1041B000FFF75DFE012240F225510A48FFF79AFE03
:1041C00027208DF8000001208DF803008DF80100F4
:1041D0008DF802006846FEF74BFA06B010BD0000ED
:1041E000000C01400048004070B504460D46002612
:1041F0000DE014F8011B0748FFF713FF00BF402133
:104200000448FFF740FE0028F9D0701C86B2AE4289
:10421000EFDB70BD0048004010B5022202490348A0
:104220000068FFF703F910BDCE09002080090020C7
:104230000FB4054B10B503A9044A029800F04CF9DD
:1042400010BC5DF814FB0000994E00089009002096
:104250000FB4084B10B504A902AA039800F03CF96A
:10426000044602A9002000F0BAFC204610BC5DF80C
:1042700014FB0000DF4B000830B528B1144C031FBD
:10428000002021680A4605E0084630BD9A4203D85E
:1042900010465268002AF9D1002800D041680BD09E
:1042A0000468A3EB0005A54204D11B681C44034627
:1042B000046002E0436000E023603AB11C68D51A54
:1042C000A54203D115682C441C6052685A6030BD69
:1042D000F00900202DE9F04782460F4C10480D4EA2
:1042E0000E4F001B4FF0000820F007054FF00109AA
:1042F00000221146504600F009FE002802D1306825
:1043000010B10020BDE8F0873C60C4E90058C6F851
:104310000090EDE7F4090020742C0020F009002043
:104320007038002002E008C8121F08C1002AFAD124
:1043300070477047002001E001C1121F002AFBD125
:10434000704700002DE9FF5F82B00021DDE90430F5
:10435000020DDDF840B0034318D044F61050A2F22D
:10436000FF3242431514119801281FD0A5EB0B0012
:10437000401C5FEA000A4FF000064E4FDFF838910C
:10438000B046504615D5CAF1000413E01198012437
:104390004AA3012801D16FEA0B010298119AC0E9E2
:1043A0000031C0E9024206B0BDE8F09FCBF1000049
:1043B000DFE704460021404A491842EB0450CDE9AA
:1043C000001012E0E00707D032463B46404649461F
:1043D000FCF7ADF98046894632463B461046194601
:1043E000FCF7A5F906460F466410002CEAD1DDE97A
:1043F0000401DDE90023BAF1000F06DAFCF797F9B2
:1044000042464B46FCF793F905E0FCF794FB424625
:104410004B46FCF790FB04460E460022284BFCF767
:104420002FFA03D84FF0FF30014607E00022254B5A
:1044300020463146FCF7D4F8FCF7F8FB102409E0DD
:10444000002C0ADB0A220023FCF748FA039B3032D7
:104450001A55641E50EA0102F2D1641C039AC4F199
:1044600011031444119A012A03D0012208430DD1EB
:104470000AE0084304D000204FF0110B119072E7BE
:10448000A3EB0B056D1E0DE05B4504DD4FF0000254
:1044900005F1010504E003DA4FF00002A5F1010582
:1044A000002AECD002981199C0E90231C0E9004518
:1044B00079E70000000014400000F03F30000000E9
:1044C0000000F0430000E03F30380A2801D201200C
:1044D00070470020704700002DE9FF4F95B09A46C5
:1044E000884606460025EEE1252877D10024274698
:1044F000F94A0121039400E0044316F8013F203BF0
:1045000001FA03F01042F7D130782A2811D06FF069
:104510002F033078A0F13002092A16D8039A44F00C
:10452000020402EB820203EB42021044761C039069
:10453000EFE758F8042B0392002A03DA504244F4C0
:104540000054039044F00204761C30782E2816D1D3
:1045500016F8010F44F004042A280DD06FF02F0242
:104560003078A0F13003092B09D807EB870302EB61
:104570004303C718761CF3E758F8047B761C3078A1
:104580006C280FD006DC4C2817D068280DD06A287C
:1045900014D104E0742810D07A280FD10DE044F42F
:1045A00000140AE044F4801401E044F440147278EA
:1045B000824202D104F58014761C761C307866287D
:1045C0000BD013DC582877D009DC002875D045289B
:1045D000F6D04628F4D047281AD193E118E0632892
:1045E00035D0642879D0652812D18BE1702873D03A
:1045F00008DC6728F1D069286FD06E280DD06F28AD
:1046000006D1ACE073282CD0752874D0782853D00C
:104610005246179990476D1C54E1C4F3025002288A
:1046200009D003280DD0D8F8001004280DD00D6053
:1046300008F1040846E1D8F80010EA17C1E9005271
:10464000F6E7D8F800100D80F2E70D70F0E718F8E3
:10465000041B8DF8001000208DF80100EB460120AE
:1046600003E058F804BB4FF0FF3061074FF0000142
:1046700002D40DE009F101018946B9420FDA814502
:10468000F8DB1BF809100029F4D108E009F1010159
:1046900089468142FADB1BF809100029F6D10398FC
:1046A0005346A0EB090721463846179A00F080FAD6
:1046B000284400EB090507E044E008E10DE01BF8A1
:1046C000010B524617999047B9F10109F7D25346A9
:1046D00021463846179AF2E039E00A21C4F3025223
:1046E0004FF0000B0091022A06D058F8040BC117B6
:1046F000032A09D00AE023E008F1070020F00702AE
:10470000F2E80201904605E000B2C117042A01D187
:1047100040B2C117002906DA0A460021404261EB87
:1047200002012D2202E0220504D52B228DF804205F
:10473000012203E0E20701D02022F7E7914657E08B
:104740000A2100E010214FF0000B00910BE0102136
:104750004FF0000B44F004040827009103E0082008
:104760004FF0000B0090C4F30252022A05D058F813
:10477000040B0021032A08D008E008F1070020F00C
:104780000702F2E80201904603E080B2042A00D159
:10479000C0B24FF0000922072AD53278702A07D01C
:1047A000DDF800C08CF0100C5CEA0B0C05D00EE0BC
:1047B00040228DF80420012208E050EA010306D0CF
:1047C00030238DF804308DF8052002229146009B9D
:1047D00083F0080353EA0B030AD150EA010201D126
:1047E000620705D530228DF804204FF001097F1EA5
:1047F0003278582A04D039A20C920CAA02920BE00B
:104800003BA2F9E75B46009AFCF768F80C9B9B5CBF
:10481000029A521E0292137050EA0102F2D10298DB
:1048200004A9081A00F1200B600702D524F4803493
:1048300000E001275F4502DDA7EB0B0000E0002050
:1048400000EB0B01009003984944401A0390E003E9
:1048500006D453462146179A039800F0A9F9054457
:10486000002706E001A85246C05D179990476D1CCD
:104870007F1C4F45F6DBE0030CD553462146179AC3
:10488000039800F095F9054404E03020524617994A
:1048900090476D1C0099481E00900029F5DC08E047
:1048A0000298029952460078491C02911799904744
:1048B0006D1CBBF10001ABF1010BF1DC5BE100F021
:1048C00065F90544761C307800287FF40DAE19B0E8
:1048D0002846BDE8F08F000009280100303132334E
:1048E000343536373839616263646566000000002C
:1048F0003031323334353637383941424344454616
:1049000000000000600700D4062708F1070020F02F
:104910000700F0E80223804603F0004C5FEA0C0039
:1049200001D097A009E0200501D596A005E0E00799
:1049300001D095A001E0AFF24C001390307823F045
:10494000004365280CD006DC452809D046281DD038
:1049500047287FD13BE0662818D067287AD136E017
:104960000021112F01DB112000E0781CCDE90001AE
:1049700004A90CA8FFF7E6FCDDE90D010C9A4FF045
:10498000000B07F10109109200914EE04FF000403A
:104990000097CDE9011004A90CA8FFF7D3FCDDE9CD
:1049A0000D020C9B0F994FF0000B91461093009253
:1049B00011B9791C00EB0109B7EB090003D4C0F170
:1049C000FF3B07F10109A9EB0700019042E0012F2D
:1049D00000DA01270021112F01DD112000E0384607
:1049E000CDE9000104A90CA8FFF7ACFCDDE90D013D
:1049F0000C9A00914FF0000BB946109221070FD48A
:104A0000009A4A4503DA914601E0A9F10109B9F19A
:104A1000010F05DD109AA9F10101515C3029F4D094
:104A2000B84202DA10F1040F03DA0121CDE90110D6
:104A300010E0002803DC8344A9EB000102E0411CE4
:104A4000494500DD8946A0EB0B00401C01904FF06A
:104A500000400290200705D40198484502DB4FF042
:104A6000FF30019000208DF84B0002980DF14B07AC
:104A7000B0F1004F25D002200C902B200D90029811
:104A800000280CDA404202902D200D9007E00A2108
:104A90000298FBF70DFF3031029007F8011D0C99C9
:104AA000481E0C900029F2DC02980028EFD1791EF4
:104AB0000D980870307800F0200040F0450007F8AD
:104AC000020D11A8C01BC01D02901398007800B100
:104AD000012000EB0901019801EBE071029801440B
:104AE0000398401A401E0390E00306D45346214623
:104AF000179A039800F05CF805441398007818B1F1
:104B00005246179990476D1CE00323D55346214622
:104B1000179A039800F04CF805441BE0BBF1000F16
:104B200007DB0098584504DD1098179910F80B0022
:104B300001E0179930205246904701980BF1010B84
:104B4000401E05F10105019004D12E20524617990F
:104B500090476D1CB9F10001A9F10109DEDC05E007
:104B600017F8010B5246179990476D1C0299481E81
:104B700002900029F4DC53462146179A03989EE6DA
:104B80002D0000002B000000200000002DE9F04166
:104B9000044600251E461746880404D405E039461D
:104BA0002020B0476D1C641EF9D52846BDE8F08171
:104BB0002DE9F041044600251E469046C80301D564
:104BC000302700E02027880404D505E04146384618
:104BD000B0476D1C641EF9D52846BDE8F0810A680F
:104BE000531C0B6010707047014609B1086808B982
:104BF0000020704719B1D1E90120904201D3084645
:104C0000F7E702E08868401C886041B1D1E90120E3
:104C1000904204D28A680868805C2028F2DDD1E9DD
:104C20000120904202D18868401E88600846E0E773
:104C300070B50446002522E02568A08900F4807044
:104C400020B9A06810B1A068FFF7F2FFA08900F4B6
:104C5000807028B9206918B10A4A206951688847CC
:104C6000A08900F4007028B9206A18B1054A206AAA
:104C70005168884703484168204688472C46002CE5
:104C8000DAD170BDB809002070B504460D46002287
:104C90002946204600F010F970BD70B50446282062
:104CA0002168884705461DB128212846FBF77DFA73
:104CB000284670BD10B5044600221146204600F07B
:104CC0006BF810BD2DE9F0478AB004460E46154634
:104CD00098461C2103A8FBF768FA002700202C49FE
:104CE0000860486004B106B932E0039404960020DD
:104CF0000590284A07CA07AB07C32648FFF7CDFF30
:104D0000074607B924E003A800F01AFD8246FFF722
:104D10006BFF81464946384600F03EFC00B917E07B
:104D2000B8F1000F0BD003A8FFF75EFFDDE9041018
:104D3000884203D205990398405C00B108E01DB198
:104D4000059903980844286038460AB0BDE8F08702
:104D500017B13846FFF76CFFC4B1019400200290F0
:104D6000DDE90410884202D20598029004E004981C
:104D700010B10498401E02901DB1DDE90101084404
:104D800028600348DDE9011206C000BF0020DCE70F
:104D9000B0090020B80900202DE9F04104460D4675
:104DA000164614B90020BDE8F0812046FBF730FA22
:104DB000471C33462A4639462046FFF783FFF2E771
:104DC00070B504460D4604B10DB9012070BDAC426A
:104DD00001D10020FAE705E0207808B90020F5E7C6
:104DE000641C6D1C2078FBF7C1F906462878FBF798
:104DF000BDF98642F0D02078FBF7B8F9064628784E
:104E0000FBF7B4F9301AE1E710B56FF00400FEF7D4
:104E100079FA0A4800680A49B0FBF1F009490870BC
:104E20000846007800EB4001C1EBC0104FF6FF715F
:104E300001EAC0000449088010BD00000400002001
:104E400000127A008A0900208C0900200146114ACC
:104E500012884A434FF0E0235A6100229A611A46B1
:104E6000126942F001021A6100BF4FF0E02210699E
:104E700000F001021AB100F48032002AF5D04FF0A0
:104E8000E022126922F001024FF0E0231A610022B1
:104E90009A6170478C09002000BF054A128802F011
:104EA0004002002AF9D0C2B2014B1B1D1A80704784
:104EB000003801402E2070472DE9F04105460E468E
:104EC0001746002405B116B90020BDE8F081AC6892
:104ED0005FB100E024688CB1206A78B13046216A65
:104EE000FBF79DF90028F5D108E000E024682CB11B
:104EF0003046216AFFF764FF0028F7D10CB1206A21
:104F000008B90020E1E72046DFE700002DE9F04185
:104F10000B3020F00706104D19E02068B04215D381
:104F2000B0420AD9871B201DD4F80480FBF724F96E
:104F3000A019C0E90078286004E060682860201D9E
:104F4000FBF71AF9201D2660BDE8F081251D2C68AD
:104F5000002CE2D10020F7E7F00900200024FEF742
:104F60002FF9FCF717FC01210B48FEF723FC11E099
:104F700000F0C4FC0020FCF7F5F8044614B120460C
:104F8000FDF752FE0548007820B9FBF713FF01201A
:104F900002490870ECE7000000080040E409002026
:104FA0002DE9F0410646002500273046FFF782FE36
:104FB00005462DB917A0FFF73BF90020BDE8F081A9
:104FC00018A12846FFF760FE047D17A12846FFF7C9
:104FD0005BFE0746012C06D0022C0ED0032C0DD010
:104FE000042C10D10BE012A13846FFF74DFE808A49
:104FF0001149C880FFF710F906E005E004E0601CE5
:105000000E49087000E000BF00BF2846FFF710FE01
:105010000120D3E77061727365206661696C2E0AA6
:1050200000000000636D64006461746100000000B2
:10503000646973635F760000C8090020542C002067
:105040002DE9F04180460C4600250027E068B0F5C8
:105050007A7F02D30020BDE8F081E068401CE06068
:10506000A1682068405C5B2800D05FE0A068401C1D
:10507000A0602046FFF7B8FD4CB1D4E9011088428A
:1050800005D2A1682068405C5D2800D13FE01CB1DA
:10509000D4E90110884203D3A068401EA06045E017
:1050A000A068401EA06000BF04F11000FFF7F5FDEE
:1050B000064606B93AE015B93546374602E03E6085
:1050C00077603746A068401CA0602046FFF78CFD43
:1050D0002146384600F060FA00B927E02046FFF785
:1050E00083FD44B1D4E90110884204D2A16820684C
:1050F000405C2C28D8D044B1D4E90110884204D2B5
:10510000A1682068405C5D2800D00FE000BFE06827
:10511000401EE06005B16F602020C8F80C00C8F8A0
:105120000850A068401CA060012094E715B12846F3
:10513000FFF77EFD00208EE702460023002100BF1E
:1051400023E0505C302806DB505C392803DC505CDF
:105150003038034415E0505C412806DB505C46289B
:1051600003DC505C373803440BE0505C612806DBFD
:10517000505C662803DC505C5738034401E0002093
:105180007047032900D21B01491C0429D9D31846B2
:10519000F6E700002DE9F04391B080460C4600BFD1
:1051A00000201090FFF786FE814600250CB1206894
:1051B00018B9002011B0BDE8F08300253CE0A168DB
:1051C00020680844405D342820D00ADCA0F12B0080
:1051D00009282ED2DFE800F0202D212A2D161718DD
:1051E0001900382816D006DC352810D036280FD004
:1051F00037281ED10DE039280DD045280FD065285D
:1052000017D10BE000BF00BF00BF00BF00BF00BF51
:1052100000BF00BF00BF00BF00BF00BF00BFA1684C
:1052200020680844405D0DF8050003E00DF8059086
:1052300000E00AE000BF6D1C3F2D05D224B1A0683C
:10524000284461688842BAD300BF00200DF80500E9
:1052500010A9684600F092FA06460F466846109973
:10526000884201D10020A5E7C8E90667144A154B1A
:1052700030463946FBF704FB04D86FF00040C8F80D
:10528000140011E00022104B30463946FBF7E0FADB
:1052900004D84FF00040C8F8140005E03046394605
:1052A000FBF7B7FAC8F814000820C8F80C00A0688B
:1052B0006A461099891A0844A06001207AE7000024
:1052C0000000C0FFFFFFDF410000E0C12DE9F04119
:1052D00080460C4600260025E068B0F57A7F02D3B0
:1052E0000020BDE8F081E068401CE06044B1D4E9F2
:1052F0000110884204D2A1682068405C7B2800D05D
:105300007DE0A068401CA0602046FFF76DFC4CB11A
:10531000D4E90110884205D2A1682068405C7D284C
:1053200000D15DE01CB1D4E90110884203D3A0682C
:10533000401EA06063E0A068401EA06000BF04F1B2
:105340001000FFF7AAFC074607B958E016B93E4619
:105350003D4602E02F607D603D46A068401CA06095
:105360002046FFF741FC2146284600F04EF800B9E0
:1053700045E02046FFF738FC2869286200202861B4
:1053800044B1D4E90110884204D2A1682068405C8D
:105390003A2800D033E0A068401CA0602046FFF708
:1053A00023FC2146284600F0F7F800B927E0204604
:1053B000FFF71AFC44B1D4E90110884204D2A16875
:1053C0002068405C2C28BAD044B1D4E9011088424E
:1053D00004D2A1682068405C7D2800D00FE000BFA7
:1053E000E068401EE06006B175604020C8F80C001F
:1053F000C8F80860A068401CA060012071E716B1E1
:105400003046FFF715FC00206BE72DE9F84F80468A
:105410000C46A16820680844461CA168206808441E
:10542000451C002000900027A1682068405C2228CD
:1054300000D0A6E04FF0000AD1460DE028785C28A5
:1054400009D1681C2168401A6168884200D398E03D
:1054500009F101096D1C6D1C2068281A61688842D9
:1054600002D228782228E9D12068281A6168884267
:1054700002D22878222800D083E0A168206808445E
:10548000281AA0EB090A0AF101002169884707469A
:1054900007B976E0009761E030785C2807D016F80D
:1054A000010B009908700098401C009056E04FF0E6
:1054B0000209A81B012800DA63E07078662819D079
:1054C00008DC222832D02F2832D05C282FD0622846
:1054D00040D108E06E2814D0722819D074281ED04C
:1054E000752837D12BE00820009908700098401CDF
:1054F000009030E00C20009908700098401C00904B
:1055000029E00A20009908700098401C009022E0D1
:105510000D20009908700098401C00901BE00920A5
:10552000009908700098401C009014E000BF00BF74
:105530007078009908700098401C00900BE06A4653
:105540002946304600F02AFA8146B9F1000F00D111
:1055500017E000E015E000BF4E4400BFAE429BD311
:105560000020009908701020C8F80C00C8F81070CE
:105570002068281AA060A068401CA0600120BDE837
:10558000F88F17B138466169884716B12068301A1C
:10559000A0600020F3E7000070B505460C460CB192
:1055A000206808B9002070BD9CB1A068001D61682A
:1055B00088420ED8A2682168881804223FA1FAF711
:1055C00050FE30B90420E860A068001DA0600120F2
:1055D000E9E79CB1A068401D616888420ED8A268C6
:1055E00021688818052237A1FAF73BFE30B901205F
:1055F000E860A068401DA0600120D4E7ACB1A068BD
:10560000001D6168884210D8A268216888180422A9
:105610002EA1FAF726FE40B90220E8600120686159
:10562000A068001DA0600120BDE76CB1D4E90110A5
:10563000884209D2A1682068405C222804D1214612
:105640002846FFF7E2FEAEE7BCB1D4E9011088427C
:1056500013D2A1682068405C2D2809D0A168206879
:10566000405C302809DBA1682068405C392804DCF4
:1056700021462846FFF78EFD95E76CB1D4E901106D
:10568000884209D2A1682068405C5B2804D1214689
:105690002846FFF7D5FC86E76CB1D4E901108842B3
:1056A00009D2A1682068405C7B2804D121462846A5
:1056B000FFF70CFE77E7002075E700006E756C6C55
:1056C0000000000066616C7365000000747275650F
:1056D000000000002DE9F04704008A4616D054F877
:1056E000047CD4F800903E1F564500D9564620460B
:1056F000FEF7C2FD05468846324621465046FFF772
:1057000005FC40B1C0F80090BDE8F087BDE8F04767
:105710000846FEF7DFBD44E9017955B129686A18EA
:10572000211F8A4202D9611B091F2960C5F8048024
:10573000EAE7024AC2F80080E6E70000F00900202C
:1057400010B504461CB1206808B1A06808B100205B
:1057500010BD7CB1A068001D616888420AD2A268B1
:1057600021688818032204A1FAF77BFD10B9A0680C
:10577000C01CA0602046EBE7EFBBBF0000B583B0C4
:105780000A460021CDE9001101466846FBF743F9BE
:10579000DDE9000103B000BD10B5FBF708FB10BD4B
:1057A00000B58DB02A480078B42842D1FCF7A2FF9A
:1057B00028A16846FEF74CFD6A4600210846FDF721
:1057C00083F828A228A16846FEF742FD6A46022116
:1057D0000020FDF779F829A22BA16846FEF738FDD5
:1057E0006A4604210020FDF76FF82CA16846FEF7F9
:1057F0002FFD6A4606210020FDF766F8FBF7DAFC6C
:1058000003E04FF49670FFF721FBFBF781FB0028C4
:10581000F7D103E04FF49670FFF718FB01212448FD
:10582000FDF7FAFC0028F5D13C2009490870FCF787
:1058300061FF2048FDF7EAF9FEF716FCFEF7F6FBDC
:105840001D480068C0431D49C1F8B4010DB000BD3A
:10585000C40900202DC7EBB4F2BFAA57494649C876
:10586000C8B5E3004E4554002DC3FBB3C63A2573BB
:10587000202020202020202020000000313233343E
:1058800035363738000000002DC3DCC2EB3A2573F3
:105890002020202020202020200000002DC6B5C27E
:1058A000CA3A20322E342047487A202020000000B7
:1058B00000000020542C0020B401224200002242AB
:1058C0000448007828B10448007810B90120024942
:1058D00008707047C4090020542C002010B5816066
:1058E000054C2468144404600024C4600BB1426079
:1058F00001E00024446010BDDC09002010B50D4813
:10590000046813E00C4920680968401A00280CDC80
:10591000606818B9204600F027F804E0064960687E
:10592000096808442060A0688047E468002CE9D139
:1059300010BD0000D8090020DC09002001460948FC
:10594000026805E08A4202D14FF0FF307047D2680A
:10595000002AF7D103480068C860024801600020AF
:10596000F4E70000D80900200246074808E0016873
:10597000914202D1CB68036001E001F10C0000BF4D
:1059800001680029F3D17047D80900200248006857
:10599000401C014908607047DC0900202DE9FF5FC9
:1059A00080468946154600240026C2460020039002
:1059B000834602900190A9EB0A00062800DA81E0F4
:1059C0000AF10200FFF7B8FB0646B6F55C4F03D3B9
:1059D000B6F5604F00D275E0B6F5584F29D3B6F54D
:1059E0005C4F26D20AF10607002000900C2002909E
:1059F000A9EB0700062800DA64E038785C2802D1B9
:105A00007878752800D05DE0B81CFFF795FB009012
:105A10000098B0F55C4F03D30098B0F5604F00D309
:105A200050E0C6F30901009861F39F2000F580342F
:105A300002E0062002903446802C02D2012003901E
:105A400018E0B4F5006F04D202200390C02001904A
:105A500010E0B4F5803F04D203200390E0200190D1
:105A600008E0B4F5881F04D204200390F0200190D0
:105A700000E027E00398401E00F0FF0B0BE004F06D
:105A8000BF0040F08000296801F80B00A409ABF1C9
:105A9000010000F0FF0BBBF1000FF0DC03980128C0
:105AA00004DD019820432968087003E004F07F00BA
:105AB000296808702968039808442860029804B08F
:105AC000BDE8F09F0020FAE7014600BF0648C06825
:105AD00000F0010018B1081EA1F10101F6D109B9C9
